:020000040800F2
:1000000058100020A5060008632E0008910600087D
:1000100000000000000000000000000000000000E0
:100020000000000000000000000000008107000840
:100030000000000000000000110700081D1A000861
:10004000D1080008D1080008D1080008D10800082C
:10005000D1080008D1080008D1080008D10800081C
:10006000D1080008D1080008D1080008D10800080C
:10007000D1080008D1080008D1080008D1080008FC
:10008000D1080008D1080008D1080008D1080008EC
:10009000D1080008D1080008D1080008D1080008DC
:1000A000D1080008D1080008D1080008D1080008CC
:0C00B000D1080008D1080008D1080008A1
:1000BC0002B4714649084900095C49008E4402BCEF
:1000CC007047C046002934D00123002210B4884266
:1000DC002CD301242407A14204D2814202D209016B
:1000EC001B01F8E7E400A14204D2814202D249008C
:1000FC005B00F8E7884201D3401A1A434C08A0422F
:10010C0002D3001B5C0822438C08A04202D3001BC4
:10011C009C082243CC08A04202D3001BDC082243DB
:10012C00002803D01B0901D00909E3E7100010BC1B
:10013C00704701B5002000F00BF802BD0029F8D083
:10014C0003B5FFF7C1FF0EBC4243891A1847C046DE
:10015C007047C0461C2101231B04984201D3000C9C
:10016C0010391B0A984201D3000A08391B0998421E
:10017C0001D30009043902A2105C40187047C04634
:10018C000403020201010101000000000000000054
:10019C00002B11D1002A0FD1002900D1002802D048
:1001AC000021C943080007B4024802A1401802907C
:1001BC0003BDC0469DFFFFFF03B4684601B502981E
:1001CC0000F02AF8019B9E4602B00CBC7047C0465A
:1001DC00D0400B00D1409C46203AD34018435242A9
:1001EC0063469340184370479140030090409C46EF
:1001FC00203A9340194352426346D3401943704707
:10020C0010B5002903D1FFF7A5FF203002E008004C
:10021C00FFF7A0FF10BDC046F0B506000F0015009B
:10022C001C0085B08B4263D801D1824260D821007A
:10023C002800FFF7E5FF390000903000FFF7E0FFE2
:10024C00009B21001B1A1A0028000393FFF7CCFF18
:10025C0000900191B94245D801D1B04242D8009BDF
:10026C00019C01200021039AF61AA741FFF7BCFF5D
:10027C0004000D00039B002B2BD0019B009ADB0785
:10028C0050081843019B5908039B9C46B9422CD833
:10029C0001D1B04229D832003B00121A8B41012601
:1002AC0092185B410027B6185F4101235B429C44C6
:1002BC006346002BEAD130003900039AFFF788FF20
:1002CC00039AA4197D4106000F00FFF78DFF241A35
:1002DC008D410A9B002B01D01E605F60200029001D
:1002EC0005B0F0BD00240025C4E7B6197F41DCE75A
:1002FC0000240025EDE7000070B5164D280003F032
:10030C0084F8041E23D020202969AB680A68824334
:10031C000A60A022052128001B68120398470028B8
:10032C0015DB0126AB68202128005B699847002863
:10033C000DDB7440E4B20849002C00D10749084891
:10034C0002F08EFA0021074801F0C2FFEAE7002014
:10035C0070BDC046D4370008C63B0008C93B000836
:10036C00CD3B00081027000010B5024B1B689847C6
:10037C0010BDC04600000020014B18607047C046FD
:10038C000000002030B585B004000D0010220021C3
:10039C00684603F0C8F86A4602239370044B2A009F
:1003AC0021006846019302F06BFA05B030BDC046DF
:1003BC0075030008F7B504000D001E00019201F052
:1003CC00CDFF030003F04AF9054F32003B50019971
:1003DC002800A04703F042F9385800F077F9C046DE
:1003EC0008000000802102200A4B0905DA6B82B05C
:1003FC000A43DA63DA6B0A4007490192019A4A68A8
:10040C00824300204A60DA6B04490A40DA6302B086
:10041C007047C0460010024000580140FFFFFFF734
:10042C0080220F4B9200196882B00A431A60802216
:10043C00196852000A4301211A600A4B0A4A1A60D1
:10044C000A4B1A6C0A431A641B6C094A0B40019341
:10045C00019BC0231168DB000B43136002B0704793
:10046C0000200240440000200024F4000010024050
:10047C0000000140014B036000207047C8390008A0
:10048C0010B5034A03480021121A02F0D6FC10BD25
:10049C0058030020780000200648074A10B5121AAD
:1004AC00064902F0CEFC064A06480749121A02F029
:1004BC00C8FC10BD0000002078000020383E000869
:1004CC000000002000000020383E000870B5050038
:1004DC000C1E13D08B684A680F48096802F0A1FC07
:1004EC000E4863692269E16802F09BFC0C48E169E3
:1004FC0002F097FC0B48A16902F093FC012D05D189
:10050C00EFF305810848103902F08BFC280021001C
:10051C0001F0BAFB70BDC046DC3B00080C3C000887
:10052C003C3C00084C3C00087B3C000830BFFDE71D
:10053C00F7B50A4B0A4D0600EF18CC1B2A00200019
:10054C000849019302F0E6FF60190021019A02F0BC
:10055C00EAFF3800083C34670830FEBD0400000098
:10056C0000000000C8390008054B5A699B689A4284
:10057C0005D08023034A5B0551680B4353607047D9
:10058C002803002000ED00E0F0B52D4B04005F685F
:10059C0089B0FD05ED0D62B6BFF36F8F130EFF2B07
:1005AC0006D1F33B1340082B33D1264802F039FC1B
:1005BC0000263400032D32D1234802F032FCA3690B
:1005CC00224A934202D3224A934205D3214A9342B0
:1005DC0030D3214A93422DD2023B1A881F4B9A42A8
:1005EC0028D11F48216802F01CFC2568202221001C
:1005FC00684602F08FFF079B002E1DD0DA0502D152
:10060C00184A1343079369462800FFF75FFF09B0A8
:10061C00F0BD01261207CDD50C000026CAE7F82341
:10062C005B0011491F4200D010492A001048103AB3
:10063C0002F0F7FB0025D9E75B0A5B02E2E7C04654
:10064C0000ED00E0BD3C0008E93C0008BC000008DF
:10065C0074360008000000200000002002DF0000BB
:10066C00013D0008FF0100008F3C0008A43C00087D
:10067C001E3D00080821024A53698B4353617047A1
:10068C0000ED00E0EFF30880EFF3098101B572464D
:10069C00FFF77AFF01BDC046094880F3088872B69F
:1006AC0008480949401880F30988EFF314800221A7
:1006BC00084380F31488BFF36F8F02F0D8FB00005F
:1006CC0058100020580300200008000010B50A4BF9
:1006DC009B6883420DD1EFF30583002B09D0802258
:1006EC00064B520559680A435A605A6A04490A4033
:1006FC005A6201F039FE10BD2803002000ED00E025
:10070C00FF7FFFFF15498A6815481044EFF3098CE9
:10071C00F0C043464C4655465E466746F8C072B636
:10072C00104F114E4A698A603E60104C14192068B3
:10073C000F4C2060506F00235367002800D162B625
:10074C00074C10191030F8C89846A146AA46B34673
:10075C00BC462438F0C88CF3098870472803002065
:10076C003000000004ED00E0000000087000000004
:10077C002802002004207146014202D0EFF30980C8
:10078C0001D1EFF308808169023909780229FFD081
:10079C0001B5724602F059FB01BDC04643B20006DA
:1007AC0005D41F221A4001239340014A136070475D
:1007BC0000E100E030B5FF2503220B00290040B218
:1007CC000240D20091409B012B40C943934000282A
:1007DC000ADBC0240A4A800880008018A400025951
:1007EC000A401343035130BD0F2210400838054A0C
:1007FC00800880008018C26911401943C161F2E77A
:10080C0000E100E000ED00E0FF22044B9343044ABA
:10081C009360BFF34F8FBFF36F8F704700000008DA
:10082C0000ED00E010B5203A1360029B01245360E8
:10083C00039B06499360049BA143D36080235B0414
:10084C00D361002391610265436710BDC1030008A9
:10085C0070B50B4B15009860026F0A4B0E001A60B6
:10086C002C1C86F309880020034B9847201C002180
:10087C0000220023014C2047972E0008C1030008DA
:10088C0028030020280200201022014B1A61704717
:10089C0000ED00E0F0B5C02400220326FF25A400E3
:1008AC0010002F003040C0008740054993089B0082
:1008BC005B1819590132B94319511F2AF0D1F0BDF7
:1008CC0000E100E010B5EFF30583054A103BDB00B7
:1008DC00D118496898588847FFF746FE10BDC046A6
:1008EC003438000810B50121024B034A034800F0CC
:1008FC0065F810BD0090002000000020C8390008E9
:10090C0010B5FF240300064A90600868A043184302
:10091C0010230343D360012389680B43136110BD7B
:10092C0090ED00E0F0B5140005000026FF2789B01B
:10093C0002910393029B9E4228DA6868002820D01B
:10094C00039B002B07D0431E03421DD1FF281BD94C
:10095C002A681A4218D12B683C400593AB68019366
:10096C0002F0A0FA019B18430A4B07901B681B0A64
:10097C003B40013B9C4207D8200005A9FFF7C0FF74
:10098C00013401360C35D5E716246442200009B039
:10099C00F0BDC04690ED00E00522034B5A60BFF35A
:1009AC004F8FBFF36F8F704790ED00E0BFF35F8FF9
:1009BC000022014B5A60704790ED00E010B5034CDB
:1009CC0001232278FFF7AEFF207010BD54030020E6
:1009DC00F0B54E4F4E4E3B6835681B0ADBB287B004
:1009EC009D4200D98FE0FFF7E1FF0024A54219D109
:1009FC00484E02A83570FFF73DFD0023019000938F
:100A0C00009A019B934216D1FF21002032783B685B
:100A1C001B0A0B409A4200DA71E0FFF7BDFF002081
:100A2C0007B0F0BD0C23634371682000C918FFF7B1
:100A3C0067FF0134DAE78021009B09041A01029B4D
:100A4C009B18DA68120D12058A4242D00ED880210A
:100A5C0089038A422FD08021C9038A4232D0802157
:100A6C0049038A4212D0009B0133C8E78021490414
:100A7C008A4236D0802189048A42F4D198685D6814
:100A8C001C6802F00FFA8023DB0205E098685D68B1
:100A9C001C6802F007FA204BFF22184305900395BF
:100AAC0004943B6830781B0A1340013B98421FD9D1
:100ABC0016204042B4E798685D681C6802F0F2F9B1
:100ACC00164BE9E798685D681C6802F0EBF9144B6B
:100ADC00E2E798685D681C6802F0E4F982235B0425
:100AEC00DAE798685D681C6802F0DCF98823F6E7A1
:100AFC0003A9FFF705FF337801333370B3E7BA600E
:100B0C003861013283E70120D3E7C04690ED00E065
:100B1C00D43900085403002000000B110000081108
:100B2C000000020610B5024B1B689847002010BD50
:100B3C002C020020034B044A1860022391780B43CB
:100B4C00937070472C02002004000020072310B57E
:100B5C000449054A99430548521A02F026F9002027
:100B6C0010BDC0465F100020009000203002002015
:100B7C00F8B50600002501277378AB4200D8F8BD04
:100B8C0034786419200000F0F3F800280ED020000F
:100B9C0000F004F9074AE1008B58002B06D05218DC
:100BAC001F2138000C40A040516898470135EDB228
:100BBC00E2E7C0463C0200200022052010B50C4C98
:100BCC00110020706070FFF7F5FD00220620110067
:100BDC00A070E070FFF7EEFD0C220721054802F033
:100BEC00A2FC002207201100FFF7E4FD002010BD3D
:100BFC00540000205800002010B50400FF20002CE9
:100C0C0005D02000FFF7A6FA1F23181AC0B2044B18
:100C1C001856044BDA6F1443DC67FFF7BFFD10BDA9
:100C2C005400002004180240024AD36F8343D36758
:100C3C007047C04604180240020000B508000329A2
:100C4C000AD80E4BFFF734FA02090C1319689143BA
:100C5C00196059689143596000BD19681143F7E751
:100C6C00596811435960196891431960F4E7196880
:100C7C001143196059680A435A60EDE700180240A5
:100C8C0070B5FF230D001400002804D0FFF762FAA2
:100C9C001F231B1ADBB2094AD8008358AB4203D17D
:100CAC0011184968A14204D0002B04D11550121818
:100CBC005460002070BD10204042FBE73C02002035
:100CCC00FF2310B5002804D0FFF744FA1F231B1A8A
:100CDC00DBB20021024ADB009950D218516010BDE2
:100CEC003C020020C022C30452031340032210B55F
:100CFC000724800803431A401B0C9C40994004486D
:100D0C0092001218106EA0430843106610BDC04626
:100D1C0000180240C022C30452031340032280086F
:100D2C0003431A40044918329200505807221B0CF6
:100D3C009A401040D84070470018024013B50B4C35
:100D4C00200002F062FB00280BD0402300933F3BB5
:100D5C000193A3681B68002B06D0694620009847B6
:100D6C0016BD13204042FBE75820FBE7F436000881
:100D7C00030000201F2B0DD8013002009A401300F5
:100D8C000549CA681A40934204D008691840C01A31
:100D9C00434258417047C046001802401F220123AD
:100DAC00024093401F2804D80020034AD3601361EB
:100DBC00704716204042FBE700180240024B1868AF
:100DCC004005C00F7047C046001002400B8813B599
:100DDC000C481B051A0D1B181B0D0C2B0ED80A4C9E
:100DEC00486813191A68024300201A600B881B0507
:100DFC001B0D1B191B680193019B16BD86204042DD
:100E0C00FBE7C0460000C0FC001002400B880948FC
:100E1C001B051A0D1B181B0D0C2B07D80020064B9D
:100E2C004968D3181A688A431A6070478620404272
:100E3C00FBE7C0460000C0FC0010024070B50888FB
:100E4C001E4B00050D0014001B68000D0C2818D853
:100E5C00002801D1863870BD01380B281BD8FFF74C
:100E6C0027F9082406221A242408081D1D1DFA231C
:100E7C00DB018022236029685201914217D20020A5
:100E8C00E9E70F4A80180005000D0C2803D80D4A1D
:100E9C00C240D207EDD486204042DCE700F014F9C2
:100EAC00C3005B08E5E7084BE3E70023E1E7090B28
:100EBC0018000131FFF706F92060E0E7440000203C
:100ECC00CC0F0000111100000024F4000C2806D8EF
:100EDC00044BC3400020DB0700D4863870478620C3
:100EEC004042FBE71A1F000070B508880C00000593
:100EFC00000DFFF7EBFF00281ADB6368FF2B16D001
:100F0C003F2198B25A011B0C0B40D20E9A40094E4D
:100F1C008019056895430560636898B2DA0E1B0C5E
:100F2C000B409A401300801904682343036000208F
:100F3C0070BDC046001002400B880A4A1B05180DF4
:100F4C009B1810B51B0D0C2B08D8074BC018036849
:100F5C004868984343425841013010BDFFF7B6FF33
:100F6C00F8E7C0460000C0FC00100240F7B54C4F3B
:100F7C0000F0C2F8380001F0B0FF00F019FE1F219C
:100F8C00484C494AA3683D001B051B0F9B009B580E
:100F9C000B40D840136801900B401D41A84202D26F
:100FAC00280000F049FEFFF709FF012808D0802334
:100FBC0022685B0013432360FFF700FF0128FBD17D
:100FCC0023683A4A134023600123226E134323669D
:100FDC000223226E1A42FCD03822A3681340102B35
:100FEC0018D1FFF7EBFE012808D0802322685B00A4
:100FFC0013432360FFF7E2FE0128FBD10722A3680D
:10100C009343A3603823A2681A42FCD1A368284AF0
:10101C001340A3602368274A1340236080239B045A
:10102C0022681A42FCD1E168234A802611408022B2
:10103C0092020A43E2608022E16852020A43E260B3
:10104C00E2681E4976040A401343E360E3683343C5
:10105C00E36000F03DF823681E43802326609B0468
:10106C0022681A42FCD0A368114A1340A3600723DC
:10107C00A2689A43053B13433822A360A36813402C
:10108C00102BFBD1019BAB4202D3280000F0D4FD06
:10109C000B4B0C4A1F60A36800201340A360FEBDDD
:1010AC000090D00300100240683B0008FFC7FFFF10
:1010BC00FFF0FFFFFFFFFFFEFFFFC1FFFFFFFFF190
:1010CC0044000020FF8FFFFF004870470024F4000D
:1010DC00064B074AD9681140064A0A43DA60802257
:1010EC00D96852050A43DA607047C04600100240C6
:1010FC008C80FF1F020800208021064B4905DA6B0B
:10110C0082B00A43DA63DB6B0B400193019B02B0A4
:10111C007047C0460010024010B5084802F075F93F
:10112C00002808D0064C2000FFF704FD2000FFF734
:10113C0023F9002010BD13204042FBE7F4370008D0
:10114C005111000870B50400074D0A2804D1AB6892
:10115C000D2128005B689847AB6828005B68E1B2FA
:10116C009847200070BDC046F4370008F7B54768B3
:10117C001E000369B868009201930C0001F0A8FEF0
:10118C008023009A05009B039A4215D12000BD686C
:10119C00FFF7C0FD85420DD12100280001F098FE1B
:1011AC000400FFF741FD2000FFF78AFD002120001D
:1011BC00FFF742FD0020FEBD8023009ADB039A421C
:1011CC0024D08023DB049E421CD0C023DB049E422F
:1011DC001AD0802316209B049E4218D10226280088
:1011EC000D49019AFFF74CFD002812D12000B96877
:1011FC00FFF778FD28003100FFF71EFD2800FFF7F0
:10120C00FBFCD7E70126EAE70326E8E78620404205
:10121C00D1E71020FBE7C0460F31000870B5036919
:10122C00040058600B4D280002F0EFF800280FD096
:10123C00AB6861681B680C31002B04D02800984700
:10124C00002803DC70BD58204042FBE70020F9E782
:10125C001320F9E7F4360008F7B504000025C9009F
:10126C0043180193019B9C4201D1002035E01F27BC
:10127C001023226817401A4217D1202563681D439A
:10128C00F821530949000B40E2395209FF390A4051
:10129C001A4300921B09192B20D8114A9B009E5807
:1012AC00002E0AD11320404217E0102F03D0112F2B
:1012BC00E6D16568E4E73025E2E7300002F0A5F8F6
:1012CC000028EFD00F2300992A00194030003B0072
:1012DC0001F030FF08340028C4DAFEBD1620E2E726
:1012EC005C3A000843681B68EFF31081012282F31B
:1012FC001088986802439A6081F310880A4A9342D6
:10130C0002D00A4A934203D1402259680A435A60D8
:10131C00EFF31081012282F310881868FF32024328
:10132C001A6081F310887047003801400044004077
:10133C0043681B68EFF31080012181F310889A68D1
:10134C008A439A6080F310880A4A934202D00A4A70
:10135C00934203D140215A688A435A60EFF31081BB
:10136C00012282F3108805481A6802401A6081F342
:10137C00108870470038014000440040FFFEFFFF1A
:10138C0037B543680D1E1C68026902D11620404215
:10139C0018E01068D9688368DB68002B13D001AAA9
:1013AC00984700280EDB2368084A6808134023601E
:1013BC00019B2900C018FEF785FE0F28E6D980B2E4
:1013CC00E06000203EBD5820E1E7C046FF7FFFFFF4
:1013DC00F7B50C00036941685D682379012B13D0C4
:1013EC009A1E56427241920200926679022E0ED8D3
:1013FC00494F7600F75BA679022E0BD0042E34D021
:10140C005E1EB3411B0308E0C022D200ECE780272C
:10141C00BF01F0E75E4273411B07E6790196002697
:10142C00B446019E012E02D1C026B600B44609680E
:10143C00A5421DD10C68394E009A34402243134307
:10144C000B604B68364A13403B434B60436835494D
:10145C001A6893680B4061460B4393602968FFF749
:10146C008FFF002800DD0020FEBD80235B01D4E748
:10147C00C0220E68D2001640009AB24205D00E6807
:10148C00294A1640009A16430E60C0264268B601DF
:10149C0011684A683240974204D04A68204E324064
:1014AC003A434A604268214E11680A6832409342BE
:1014BC0004D00A681E4E324013430B60C0214368AF
:1014CC0089001A6893680B409C4505D093681549B0
:1014DC000B4061460B43936080224368D2011B682A
:1014EC009968114206D0019A032A09D09A681149C9
:1014FC000A4004E00199032902D199680A439A60D1
:10150C0021682B689942AED0FFF73AFF0028ABDB7D
:10151C0023682B60A7E7C046C03B0008FFE9FFEF3C
:10152C00FFCFFFFFFFFCFFFFFFF9FFFF00100010D4
:10153C00FFEFFFEFFFBFFFFFF0B506004768046940
:10154C005C4885B0206001F060FF002802D11320B8
:10155C004042ABE02068F96883681B68002B00D11F
:10156C00A6E09847002800DAA0E00021386A03AA18
:10157C0001F0F5FD002800DA98E0039B00221979B0
:10158C001868FFF769FE002800DA8FE00122756801
:10159C0033692C685B680193236893432360686804
:1015AC0001F033FF0028D2D06868A9688368DB6833
:1015BC00002B00D09847EFF31082012383F310889F
:1015CC000C2123680B43236082F3108830000199AF
:1015DC00FFF7FEFE002801DA1620B9E72B7D002B61
:1015EC0003D00823A2681343A3606B7D002B04D0A7
:1015FC0080226368120213436360AB7D002B04D01E
:10160C0080226368520213436360EB7D002B04D08D
:10161C00802263689202134363602B7E002B2BD0D5
:10162C00254B9C420BD0254B9C4208D0244B9C4212
:10163C0005D0244B9C4202D0234B9C42CCD17368E6
:10164C001A6880239168DB010B43936022686B7EE0
:10165C001E495B050A40134323602268AB7E1C497C
:10166C001B040A4013432360EB7E002B04D0802222
:10167C00A36812021343A3602B7F002B04D080239A
:10168C0022689B05134323600123226813432360C4
:10169C0080239B03E2691A42FCD08023DB03E269BE
:1016AC001A42FCD030007B6A9847002005B0F0BD90
:1016BC0058204DE7F4360008003801400044004043
:1016CC0000480040004C004000800040FFFF1FFC21
:1016DC00FFFFE0FFF7B5436800901C6803690D003D
:1016EC005B6801934B790A799C468879012A16D15B
:1016FC00022B2ED9C02180230600C9009B01022891
:10170C0000D17EE0042836D00020824237D08020E1
:10171C00033A4001012A32D886204042FEBD022AFB
:10172C0009D1022B23D980210600C900022857D0E9
:10173C0080239B01E6E7022B1BD90600002102281F
:10174C00F6D10021002A4BD1802011004005032244
:10175C001AE0C021C90066462F4B7600F35A0600EA
:10176C000228CFD1002A4CD18020400507E08021EF
:10177C00F0E70021EFE7002ACED18020400180273E
:10178C0000227F01BB4232D16245C5D101F031FD4F
:10179C00B042C1D1EB79002B10D0012B38D11F4BAB
:1017AC009C420BD01E4B9C4208D01E4B9C4205D039
:1017BC001D4B9C4202D01D4B9C42ADD1012623688F
:1017CC002900B34300982360FFF702FE0028A3DB37
:1017DC00236800201E43019B266006CD06C39DE7AF
:1017EC00033A012A98D98023002002269B01C027A6
:1017FC000222BF01BB42C7D0013A002BC4D0023237
:10180C00C2E7033A012A00D886E702260020B6E791
:10181C00032BC4D080E7C046C03B00080038014011
:10182C000044004000480040004C00400080004054
:10183C0070B50369C0225B680C001B68D2000B609A
:10184C008021436805001B68C9001B6813400222F5
:10185C008B4204D01C4A9B185A425341DAB2C02125
:10186C00802022716B6889011B6800225B68400133
:10187C000B40834206D002328B4203D0013A002B3C
:10188C0000D0023262716B681B6818681968C0233B
:10189C00DB0019400D4B184001F0ABFCC022A071CD
:1018AC006B6892001B689B681340094A9B185A424C
:1018BC005341DBB2E3716A6812689268520400D536
:1018CC0003230020E37170BD00FAFFFF001000102D
:1018DC0000FDFFFF70B543680D001C68C023206835
:1018EC002168DB001940114B1600184001F081FCF7
:1018FC00042817D08023E26900201A4211D0EFF39C
:10190C00108272B6311A002906DDE169194203D042
:10191C00295C0130A162F5E7002A02D162B6BFF35F
:10192C006F8F70BD86204042FBE7C0460010001050
:10193C0070B543680D001C68C02320682168DB006B
:10194C0019400D4B1600184001F053FC042810D020
:10195C00002020220823311A00290CDDE1691142F4
:10196C0009D0616A2954E16901301942F3D023622C
:10197C00F1E78620404270BD0010001070B5802544
:10198C001049114B8C681B680E6810488A686D02F0
:10199C00002C08D1002A11D11A002E4209D100685E
:1019AC001818801A70BD002A0AD02E4201D1A2420A
:1019BC00F5D90468E41804600968F0E71C00F4E742
:1019CC001A00F2E710E000E02403002020030020BE
:1019DC000A4A0020136A1B021B0A1362C822084B16
:1019EC0052011A60074B084A1860084B5A600722CC
:1019FC00986019680A431A607047C04600ED00E011
:101A0C002403002020030020FF18000010E000E059
:101A1C00F8B50024FFF7B2FF104E23003168104DCB
:101A2C000A00286869688018594128606960C821D3
:101A3C000C4D346049012E686F68801BFEF742FB29
:101A4C00C8214901414323000A0092197B412A60B5
:101A5C006B6000F07DFEFEF787FDF8BD20030020D3
:101A6C008000002078000020F0B53B4B3B4D87B048
:101A7C00002960D0421C08D101212A688A432A60BF
:101A8C00FF2212061A6007B0F0BD1B6803930023F7
:101A9C000293012854DCEFF31083059372B6FFF721
:101AAC006DFF00221100AB6804932D4B1E685F681C
:101ABC0036184F413000390018605960294B009698
:101ACC0001971A60284B1C68009B1B1B93423EDB42
:101ADC00C82702987F017843244A39008018C0181F
:101AEC00FEF7F0FA009B7843E41A80232018DB0001
:101AFC00984200D218001E4B984200D91800164B81
:101B0C00174918600138AB6868600020A860049A17
:101B1C00D41A9A421ED2039D621903000C684D68B8
:101B2C0012196B410A604B60059B002BABD162B65E
:101B3C00BFF36F8FA7E71B680393431CA7D10D4816
:101B4C000D4B984200DD1800431E0293A3E7802042
:101B5C00C000D4E72200E0E72403002010E000E0FE
:101B6C00800000202003002078000020FF180000D7
:101B7C0000DCFF003C0A00003D0A000070B5EFF3EA
:101B8C00108572B6084A094B14681B68E41AFFF7F3
:101B9C00F5FE0019002D02D162B6BFF36F8FC8217C
:101BAC004901FEF78FFA70BD8000002078000020FC
:101BBC00382370B51D4CA2681A4205D123681C4805
:101BCC009B045B0FD84070BDA2681A40082A27D02E
:101BDC00A2681A40102A17D1E368E168DB43E56874
:101BEC004906490F6F322D0A013115409B0709D167
:101BFC001048FEF767FAE1686843490F0131FEF7B8
:101C0C0061FAE0E70A48F4E7A2681A40202A09D0F2
:101C1C00A26800201340182BD5D1FA20C001D2E7BE
:101C2C000448D0E780200002CDE7C04600100240F7
:101C3C000024F40000127A000F4B411E0200012018
:101C4C00994217D80D4902238A4203D80C4B934270
:101C5C009B415B4207200B490A6882431A430A6086
:101C6C000A680240934201D00A680240981A421E48
:101C7C009041C0B27047C046FF8FD003006CDC02AD
:101C8C0000366E010020024070B5EFF3108572B67D
:101C9C00064B9C6801F0CAFB002D02D162B6BFF363
:101CAC006F8F2000FEF712FD70BDC0462803002088
:101CBC00F8B501270A4E83009D5901308400335931
:101CCC00AB4200D8F8BD6868002806D0037F3B42C1
:101CDC0001D101F081FB0835F1E72B689847FAE751
:101CEC00A83B0008012270B5234B032086B01A7064
:101CFC00FFF7DEFF00F0ACFD0420FFF7D9FF1F4C0F
:101D0C0026001F4DAC420ED300F01CFAAE4220D37D
:101D1C0000F028FAFEF7F0FA01211A4A137B8B43E4
:101D2C00137306B070BD636A0593236A0493E36969
:101D3C000393A36902936369019323690093E36896
:101D4C00A2686168206800F0B1F823685C653034E3
:101D5C00D7E7B26AF36A511C01D1591C05D01100A6
:101D6C003068194303D100F0D9FA3036CEE7064972
:101D7C00183000F05DFCF8E7550300202C39000802
:101D8C002C39000808010020C134000870B5012569
:101D9C000400C6010102124880220918002086B0F6
:101DAC0004950E350395053565430E4B0590029051
:101DBC0001900D48F6182D180C4B30000095520070
:101DCC0000F074F80422737B2C7493437373013406
:101DDC00074BE402E418EE606C6006B070BDC046C0
:101DEC00580B002088000020280300203F340008F6
:101DFC0058030020F0B5002087B0FFF759FF224BA5
:101E0C0083F308882149224B0A6A00251A40C02313
:101E1C001B0413430B62FEF72DFCFEF735FDFEF79A
:101E2C00D7FDFEF75FFD1B4800F080F8FEF7F8FACF
:101E3C000120FFF73DFF0220FFF73AFF00F0C2F947
:101E4C00154C164B80225C61154B164E05930123E5
:101E5C0015490493D2003300200003950295019597
:101E6C00009500F023F804220700637B20009343C5
:101E7C00637301F0F8FA2800FFF788FF320039008D
:101E8C002000FEF7E5FCC046580B002000ED00E0FA
:101E9C00FFFF00FF8801002008010020280300201C
:101EAC00E93D0008F11C0008580C0020F0B589B081
:101EBC000793030058338365C365129B072703738D
:101ECC00042300250732BA434373D219119BBA433A
:101EDC0083738B180E0085601900C5738561C5610D
:101EEC00040005920693FEF723FB059BC01963665D
:101EFC00069BB8431F1A109BA066266602930F9B85
:101F0C003A0001930E9B310000932000079BFEF7D3
:101F1C0089FC054B65659B68AB4200D0DB6E3800D5
:101F2C00E36609B0F0BDC046280300200223FF334E
:101F3C008381002303664366C366014B9860704738
:101F4C00280300200B21084A494293689967586777
:101F5C00802306495B05486803434B6062B6BFF3B8
:101F6C006F8F9368986F70472803002000ED00E096
:101F7C000D2370B5C356427B002B38DBD30636D10C
:101F8C0080235B4213431B4C4373A3691A49E269D8
:101F9C008B4207D1016042601060E06111E09A420F
:101FAC00F8D01B68002BF5D00E250E2645579E57F2
:101FBC00B542F4D0AE42F2DD5A6803604260106064
:101FCC005860A5698D4201D0002D00D1E568A36849
:101FDC005A7BD20605D1DA897F2A02D9AA69002A4E
:101FEC0006D0AB4202D0280000F084FA656170BDC7
:101FFC006361FCE728030020400300200D2270B52C
:10200C0082560500437B002A04DA7F221340437377
:10201C0001F016FA0D4E0E4AB469B368944201D021
:10202C00002C00D1F468AB4208D05A7BD20605D103
:10203C00DA897F2A02D9A269002A05D0A34202D0EC
:10204C00200000F057FA2300736170BD28030020B4
:10205C00400300200D2270B582560400437B002AF9
:10206C0004DA7F221340437301F0EAF98023627B88
:10207C005B4213431B4D6373AB691B49EA698B428B
:10208C0007D1216062601460EC6111E09A42F8D0D3
:10209C001B68002BF5D00E200E2620569E57B04202
:1020AC00F4D08642F2DD5A682360626014605C6092
:1020BC00AE69AB688E4201D0002E00D1EE68A3420F
:1020CC0008D05A7BD20605D1DA897F2A02D9B269A7
:1020DC00002A05D0B34202D0300000F00BFA3300D6
:1020EC006B6170BD280300204003002010B500294F
:1020FC000AD1EFF30580002807D1064B9A685B697B
:10210C009A4202D0FFF71EFF10BD62B6BFF36F8F6D
:10211C00FAE7C0462803002010B500280AD1EFF3D7
:10212C000580002807D1064B5A699B689A4202D059
:10213C00FFF708FF10BD62B6BFF36F8FFAE7C0461A
:10214C0028030020EFF3108172B6054B9A68D37BFD
:10215C00013BD373002902D162B6BFF36F8F704776
:10216C002803002070B5EFF3108672B6134DAB68E0
:10217C00DA7B0132DA73AC69114A944201D0002C3B
:10218C0000D1EC685A7BD20605D1DA897F2A02D9B4
:10219C00A269002A05D0A34202D0200000F0AAF9BF
:1021AC0023006B61002E02D162B6BFF36F8FEFF389
:1021BC00108072B6FFF7B0FF70BDC0462803002038
:1021CC0040030020024B034A9A61DA617047C04613
:1021DC00280300204003002070B5EFF3108572B681
:1021EC001C4CA168E3690A68CB1A581E83414968E4
:1021FC005B420A6051601340E169A268002B05D173
:10220C00154B516013600A60E2610CE00E200E2643
:10221C0010569E57B04218D0864216DD596813608E
:10222C0051600A605A60A6690B4B9E4201D0002E89
:10223C0000D1E668A3689E4202D0300000F05AF943
:10224C0028006661FFF77EFE70BD8B42D8D01B68FC
:10225C00D4E7C0462803002040030020F8B5030053
:10226C0007000C000B4303D1FFF7B6FF0020F8BDAD
:10227C00EFF3108672B6134D134BA8681860FFF776
:10228C00BDFEA86823003A001049183000F0D0F9C0
:10229C000423AA680400517B30000B435373FFF7EF
:1022AC0051FEAB689A6A002AE0D18022DB6A1206E2
:1022BC009342DBD101F02AF9201AC343DB171840F3
:1022CC00D5E7C0462803002048030020C13400088D
:1022DC0070B504000D00FFF7C1FF03002000621C65
:1022EC0001D1013513D01800D91709220023801809
:1022FC005941002901D109280AD904290AD802D147
:10230C0003000B3306D80A220023FDF741FF70BDF2
:10231C000800FCE70048FAE7FFFFFF7F70B50400F8
:10232C00EFF3108572B60426437B33420DD0183080
:10233C0001F0C6F8637B2000B3436373FFF718FE0C
:10234C0029000548FFF7D2FE70BD002DFCD162B606
:10235C00BFF36F8FF8E7C04656030020014B986817
:10236C007047C04628030020F0B5037B85B00400FD
:10237C000393EFF31083019372B6019B029308232E
:10238C00427B1A4207D0019B002B02D162B6BFF3ED
:10239C006F8F05B0F0BD1900114348B2002857DB10
:1023AC006173A368002B02D0200001F051F82000CB
:1023BC002600183001F084F85836A56DAE4201D0D5
:1023CC00002D4DD1304F0025BB689C4204D1EFF35A
:1023DC0005856A1E9541EDB2BE692C4A964201D024
:1023EC00002E00D1FE68B34202D0300000F082F81B
:1023FC0020007E6100F046FD002D02D02448FFF73E
:10240C0095FDBB689C4238D1EFF30583002B34D18A
:10241C00237BDB070FD5019B002B02D162B6BFF3E8
:10242C006F8F62B6BFF36F8F0423181C02DFEFF3BC
:10243C00108372B602930298FFF784FD039BDB07AF
:10244C00A7D562B6BFF36F8F0423181C02DFA0E779
:10245C007F210A4013432000637300F0F1FFA0E7D3
:10246C00280000F0F5FF2800183001F029F80023AF
:10247C002800AB67FFF77CFD9FE7019B002BDDD1AC
:10248C0062B6BFF36F8FD9E728030020400300200A
:10249C00880100200121044B044AC01A044BC010CF
:1024AC004343D1547047C046080200205603002015
:1024BC00ABAAAAAAC289030000207F2A11D80A4A13
:1024CC00106800280DD00E21084A595612680020B9
:1024DC00914206DB5A7BD20603D10548181A431EDB
:1024EC009841012318407047480000204C030020FD
:1024FC008800002070B518240C4B05001E7C0C4B7A
:10250C007443E418200000F0DBFF0022094B280084
:10251C009A55FFF7CFFF002807D0074B20001A6809
:10252C000649013AD31700F083F870BD2803002048
:10253C00080200205603002048000020A1240008B7
:10254C0070B5EFF3108572B6104A114B9468186889
:10255C00A04207D1FFF7CEFF002D02D162B6BFF328
:10256C006F8F70BD00211960127C0A4B9B5C8B42F3
:10257C00F2D02000FFF79EFF0028EDD0637BDB0636
:10258C0002D12000FFF766FD2000E3E728030020BE
:10259C004803002056030020024B1868984200D1D3
:1025AC00002070474C00002070B50600FFF7F4FFC8
:1025BC00002810D0026943693400F517121BAB4197
:1025CC00002B08DC03D1802109068A4203D2D843B0
:1025DC00C017104070BD0148FCE7C046FFFFFF7FED
:1025EC00002010B5034B1B68834201D1FFF7C6FADC
:1025FC0010BDC0465003002030B500280ED00B4B48
:10260C005B6898420AD00168002907D00A694B69B7
:10261C000469456912196B410A614B610368426890
:10262C0013605A6000230360436030BD4C000020EF
:10263C00F0B5040015001E0085B0531C02D1731CAC
:10264C0000D17CE0A160EFF31083039372B6002EEF
:10265C0026DBFFF7C5FF00210090012040197141D6
:10266C00009AD31712184B413649226163610868EE
:10267C00496812184B411E00150001230293FFF705
:10268C008BFF0700304B9C465B680193002F1DD1DC
:10269C0063462360019B63601C6063465C6027E0BB
:1026AC00284B1868596802225242D317121A8B41D0
:1026BC00521BB3411100002B04DC01D1002A01D1C3
:1026CC0001210023636121610023D7E7386979690F
:1026DC0022696369994202DC28D1904226D9801A7A
:1026EC0099417B6838617961636027601C607C600C
:1026FC00FFF752FF84420FD1144B1B68002B0BD1F8
:10270C00029B002B02D1FFF76BFF00900098FFF7A4
:10271C004BFF0021FFF7A8F9039B002B02D162B6F7
:10272C00BFF36F8F2800310005B0F0BD121A8B413A
:10273C0022616361019B9F42AAD03F68A6E70025F6
:10274C000026EFE7200200204C0000205003002060
:10275C00F0B587B0EFF3108372B601932F4B18606E
:10276C00FFF71AFF2E4F04003A687B68029203931E
:10277C002A4B9C461D6800280FD042690669EB174E
:10278C009A4202DC24D1AE4222D919002269636933
:10279C002800121A8B4122616361029803992A0066
:1027AC00EB1712184B4100243A607B606346200003
:1027BC001C60FFF7F9FE2100FFF756F9019BA342BD
:1027CC0002D162B6BFF36F8FFFF7BAFE07B0F0BD50
:1027DC00F31704960593049A059B029803998018A5
:1027EC005941002300220E4D22616361286069600B
:1027FC002000FFF701FF019B002B02D162B6BFF353
:10280C006F8F2000A3689847EFF3108372B6034ACA
:10281C00019313689B1B1360A2E7C0465003002072
:10282C002002002010B5EFF3108472B6FFF7D8FE2B
:10283C0002000649C3170868496880185941002CE2
:10284C0002D162B6BFF36F8F10BDC04620020020CC
:10285C0010B5024800F0E5FA10BDC046EE3D000888
:10286C000FB407B5054B04AA02CA1868019200F010
:10287C0007F803B008BC04B01847C046F439000888
:10288C00F0B5436893B003900893837815009B07C9
:10289C0000D4F8E0002301930E78002E6AD0252E88
:1028AC000DD04B1C0993019B013301930399089B99
:1028BC00F0B29847002800DADFE00999ECE74E788F
:1028CC008B1C0993252EEED0002304211C00099AA1
:1028DC000293079309921F2C2ED830002038102811
:1028EC000AD8FDF7E5FB1D0909270909091E090985
:1028FC00091B0925090918003300303B092B29D97C
:10290C002A2E32D108CD600622D4002B29DB2020C0
:10291C000793044305E001231C4302E002231C43FC
:10292C000C43099B01321E78002ED3D109922DE065
:10293C000823F1E71023EFE77F2C1ED83300303B40
:10294C00092BDDD8600605D50A20029E7043C318FA
:10295C000293E6E70A20079E7043C31807932023CF
:10296C00DAE75B4207932823D6E72E2E05D14023C6
:10297C001C42D1D0019813B0F0BD6C2E2DD027D8AD
:10298C00682E31D06A2E32D04C2E30D0029B002BC8
:10299C0003DA40239C4300230293202333431A0081
:1029AC00653A022A01D9612B24D10722EB1D9343EE
:1029BC0008331D00AB4F0292240753D5019A029B9A
:1029CC0016009C18B4424FD1079B029A9E1A82E1C2
:1029DC00742EA6D07A2EA4D0D8E780231C429BD08C
:1029EC0080208000044397E780235B00F6E7A02358
:1029FC009B0091E730006338122800D9E3E0FDF723
:102A0C0057FB0A46E2E2E2E246E2E2E2E2E2F3DD10
:102A1C00E2E211E2AD0004CD0CAB1A7001230CAF55
:102A2C000293C9E780CD002F00D18F4F0299630626
:102A3C0001D401214942380000F07DFD0290BBE732
:102A4C0020200399089B9847002816DB013C029B29
:102A5C00A342F5D3079A019B944663441B1B019335
:102A6C000794ABE7079CF2E7019B0399FB1A985D6F
:102A7C00089B984701360028A4DA039B9A78042314
:102A8C001343039A937001235B42019372E723066D
:102A9C003FD5A30537D50722073595432F000CCF1B
:102AAC0004920593102325009D43059B002B3ADAD5
:102ABC000499059A00244B42944104930594802375
:102ACC00DB001D43ADB20CAC0A230498059922001F
:102ADC0000F03CFD041B6B0665D501232A009A43CC
:102AEC001300029AA24200DCA4E0002E00D19CE06C
:102AFC001022290011400B91154200D09CE0029A43
:102B0C001D0006921EE02F0008CF0493DB170593DF
:102B1C00C8E72F0008CFE205F7D5A20501D55BB2B7
:102B2C00F3E71BB2F1E7049B059A1343CBD1630681
:102B3C00C9D5029B002BC6D111339C43029B2500A7
:102B4C001C0006932A00494B1A400B921D4277D069
:102B5C00069B0133069300230B9371E010239C43D7
:102B6C00063B9C46802322001A4006921C4242D00F
:102B7C0021008133FF3319401C4239D00722EB1D51
:102B8C0093431F0003CB083703000B4346D12500AA
:102B9C0016339D43630644D5029B002B41D117335A
:102BAC009C432500029C10232A001A400B921D42C4
:102BBC0056D0631C002E42D022003FE01023782612
:102BCC009C461C43CEE7782B04D110229B1B1A4346
:102BDC009446C7E725200399089B9847002800DAFC
:102BEC004BE7019B023360E6082300269C46B9E7BD
:102BFC002F0001CFC8E72F008022210008CF520000
:102C0C00180011401442BFD08022210092001140C4
:102C1C0098B21442B8D00699D8B2B5E706239C43B3
:102C2C0025000CAC6346220052E711239D43029B06
:102C3C00069387E71D00B6E71D00029A931C0693C6
:102C4C002B072AD4EB0709D5079B069A02949342CB
:102C5C0004DD9B1A1B190293079B0693069B10E03D
:102C6C0006946FE7303E0008293E00080604000079
:102C7C0020200399089B9847002800DAFDE60A9B60
:102C8C0001330A930A9A079B9342F1DC069A019B43
:102C9C009B1A0A9A9B18019306920B9B002B25D02A
:102CAC0030200399089B9847002800DAE5E6019B41
:102CBC00002E12D101330193019E029B019A9B18A5
:102CCC009B1BA34220DC2500002D25D13D00079B3A
:102CDC00069AA4199E1A019431E002330193F0B2C2
:102CEC000399089B98470028E6DAC6E6174B1D4265
:102CFC00E2D02020AB0700D50B306D0500D52D2080
:102D0C00019B01330193EBE730200399089B0136BB
:102D1C0098470028D1DAB0E60CAB013DE85C03998A
:102D2C00089B98470028CFDAA7E6019B20200133A7
:102D3C0001930399089B9847002800DA9DE6019AB5
:102D4C00A3199B1A002BF0DCB7E5C0460604000063
:102D5C007047C9004018408840087047F8B50D000E
:102D6C000400FFF7F6FFFDF7F5F91F21091A8A0099
:102D7C00A218EB0010691F1D0633E719E318AEB259
:102D8C00002808D101308840E1680143E1601561F9
:102D9C003E801E80F8BDC1000431625A3A80D200D8
:102DAC00A2181880D6806652F4E70723F7B50027DF
:102DBC00043ACC1D89189C4399430B1BDE08046014
:102DCC00A660E7603000009301912425FDF7C2F95D
:102DDC0020222D1A121A200039009200103000F017
:102DEC00A2FB0123AD000735ED086A001A4362808F
:102DFC00711BEA00A0184B0027804380009BA55252
:102E0C00E218019B578019800123F600A6197288DD
:102E1C002900134373802000FFF7A0FFF7BD0020AB
:102E2C0070470FB407B504A901C90191FDF7AAFABF
:102E3C0003B008BC04B01847704710B500F073FB22
:102E4C0010BD10B500F066FB10BD10B50100006898
:102E5C00FDF73CFB10BD10B5FDF768FBFDF784FBDF
:102E6C0010BD10B500210120FDF730FB10BD10B5D1
:102E7C00FDF7CAFCFDF704FBFDF70EFBFDF70AFDA1
:102E8C00FEF7B8FF862040427047002802D162B698
:102E9C00BFF36F8F7047BFF34F8F30BF62B6BFF376
:102EAC006F8F7047030010B50820202B0AD98022A1
:102EBC0036301206934205D8581EFDF74BF91F23E6
:102ECC00181A400010BD10B5FDF72CFE002010BDE7
:102EDC001F23012019408840704770474368002029
:102EEC005B681B690B60704743685B6858694240BC
:102EFC0011404140596100207047436800205B68D5
:102F0C0099617047436800205B6899627047436819
:102F1C0000205A6853694B405361704710B50369E0
:102F2C009868002821D088421BD10868DC6898601A
:102F3C00A14200D1D86000200860824206D09A6875
:102F4C000A60DA689960002A00D1D960002010E08C
:102F5C00814206D108682060D8688142EBD1DC60E0
:102F6C00E9E7040000680028F2D1002AE7D1162016
:102F7C00404210BDF0B50126302485B002933300D9
:102F8C001440019494098B4034408C4040680236C4
:102F9C00456803279D432C4344608468A4461C0069
:102FAC008C406643F5430395D5093D4065432F009E
:102FBC006546B5432F4387600327520A3A40624364
:102FCC00C568B5432A43C260019A202A0CD107294F
:102FDC0014D823008B408B400F215943026A8A433B
:102FEC0002994B4313430362019B02681B095C4328
:102FFC00039B1A401443046005B0F0BD0F211B0A5B
:10300C005B435B435943426A8A4302994B431A43DD
:10301C004262E9E71300F7B580221F0092021740C5
:10302C000C000197134220D09A0717D55A0765D583
:10303C005022D90614D5802189000A43C0251900D5
:10304C008026ED002940F600B1424AD0A94218D0A2
:10305C008025AD00A94217D1802114E01022E8E7A9
:10306C009906EBD58021C900E7E73022D903E5D5D5
:10307C00DA0603D49A06D20F9202DFE7802292007E
:10308C00DCE7C02149000A43C0211E0089020E4022
:10309C00056900960B420AD02E693100E1408C463E
:1030AC00012167460F4202D1A140314329610199A8
:1030BC00002906D041681E0315D50123A340496899
:1030CC008B61002321004068FFF754FF009B002B0D
:1030DC0005D12B6901221900E14011420AD10020CF
:1030EC00FEBD8021CEE75B03EBD50123A3404968ED
:1030FC008B62E6E7A24093432B61F0E786204042C7
:10310C00EEE770B50B0089680500002903D05E68F6
:10311C000C68002900D170BD8B681A002A402B4224
:10312C0002D030004B689847231E00D02368210042
:10313C001C00EEE7F8B5050040681F000E001400F7
:10314C00FFF718FF112F06D101236A68B3405268AC
:10315C00240502D593610020F8BD9362FBE730B5DE
:10316C000368136005790468ED006419A34202D367
:10317C000220404230BD5C798C4201D00833F0E72C
:10318C000020F7E74068CB0300681B0D1B181F20BD
:10319C0001401E3888401B680340591E8B4100209B
:1031AC00137070474268CB0312681B0D9B181F22CB
:1031BC0011401E3A8A40186802431A60002070477A
:1031CC0042681F20CB0301401E38884012681B0D3B
:1031DC009B181A6882431A600020704770B50D0066
:1031EC000400FFF7DFFF29002000FFF7E9FF0020B4
:1031FC0070BD8022030052010800934207D0802248
:10320C005205934207D14342584101307047434223
:10321C0058410330FAE7434258410230F6E70122A5
:10322C0010B5436802211B68D869DC69C0081040DE
:10323C00144200D00843DC6904220C4200D0104335
:10324C00D969114201D0202210438022D969520041
:10325C00114202D008211A620843C20701D5082284
:10326C001A62820701D501221A62420701D5022295
:10327C001A62820601D504221A6210BD43681A68CC
:10328C00EFF31081012383F3108810683F3303435D
:10329C00136081F31088704743681A68EFF310814C
:1032AC00012383F31088402013688343136081F358
:1032BC001088704743681A68EFF31081012383F379
:1032CC00108810681F330343136081F31088704714
:1032DC0043681A68EFF31081012383F310882020D0
:1032EC0013688343136081F31088704743681B682D
:1032FC00D8698006C00F7047012070470369996038
:10330C00DA60704710B502699368002B01D0D16860
:10331C00984710BD002210B511001B20FDF74AFA8A
:10332C001B20FDF73BFA10BD002210B511001C202C
:10333C00FDF740FA1C20FDF731FA10BD43681B68FD
:10334C00D8694006C00F7047436800201B68DA69D3
:10335C00120602D518684006C00F7047802210B5BF
:10336C0043681B68D8691042FCD0EFF3108072B62A
:10337C00DC69144205D10028F4D162B6BFF36F8F1B
:10338C00F0E79962002800D010BD62B6BFF36F8FD2
:10339C00FAE7202243681B68D969114203D01968E7
:1033AC000120114206D1DA690020520602D51868B4
:1033BC004006C00F7047082243681B68D86910424A
:1033CC0000D01A62DA69920603D500205B6A0B7092
:1033DC00704701204042FBE710B543690400002B05
:1033EC0007D100230122E168487802434A70584211
:1033FC0010BD98470028F4D0C21783185340FF2BF8
:10340C0000DDFF23E2681370ECE7002809D00123EC
:10341C00C26800205178194202D0107842425041C3
:10342C0018407047EFF3108372B6FEE710B5FFF744
:10343C00F9FF10B5EFF3108372B6FFF72CFDF9E727
:10344C000368426813605A6000230360436070474E
:10345C0010B50400FFF7F4FF0222637B9343637300
:10346C000023A36010BD10B5EFF3108472B6FEF705
:10347C007FFD002C02D162B6BFF36F8F10BD70B50B
:10348C000400EFF3108572B62823427B1A420BD14D
:10349C008368002B01D0FFF7DBFF0422637B200045
:1034AC0093436373FEF764FD002D02D162B6BFF344
:1034BC006F8F70BD10B501211838FFF7E0FF10BDFC
:1034CC0070B50400EFF3108572B60368002B1AD0A8
:1034DC00FFF762F806002000FFF78EF88023002229
:1034EC001B0622616361A64206D1FFF779F8FFF74C
:1034FC005BF80021FEF7B8FA0020002D02D162B66D
:10350C00BFF36F8F70BD16204042F6E710B5FFF782
:10351C0089F910BD002310B59A4200D110BDCC5CC6
:10352C00C4540133F8E703008218934200D170476A
:10353C0019700133F9E7030041188B4202D01A7855
:10354C00002A01D1181A70470133F6E7F0B50D00C7
:10355C003721C91A8FB0C9B20D911F2104000B403D
:10356C000C930C99E3B2082955D0102900D164E0D2
:10357C00E90760080843690806900791A008A907A5
:10358C000843A90808900991089E099F0698079975
:10359C00801979410E07B446060900966646009FCD
:1035AC0037430E0900970196009E019F80197941BF
:1035BC000E06B4466746060A3E4302960E0A03966A
:1035CC00029E039F801979410E04B4466746060C8F
:1035DC003E4304960E0C0596049E059F8019794176
:1035EC0000260A910B960A9E0B9F801979414E0773
:1035FC00CD080521C4083443614349005B1ADBB292
:10360C00092B12D9012000210A3B24184D41DBB2B1
:10361C001DE00200A5E707210B4069078C466646B2
:10362C00E008E908064334000D0030331370230022
:10363C00501C2B43EDD10FB0F0BD0F210B402907CF
:10364C008C46664620092909064334000D00092BD7
:10365C00EBD90D99CB18DBB2E7E700000148006805
:08366C00704700002802002055
:08367400B0CBFF7F0100000054
:10367C0000000000F4360008F10300080000000010
:10368C000000000014370008000000009437000808
:10369C0000000000D4370008000000003437000898
:1036AC0000000000743700080000000054370008C8
:1036BC0000000000B4370008C50B00080000000033
:1036CC0000000000F4370008000000001438000867
:1036DC002511000800000000DD19000800000000A2
:0836EC00590B0008000000006A
:1036F400653D0008000000006039000866000020F5
:1037040000000000790F0008000000000000000025
:10371400B83D0008C43A000850390008720000207F
:103724000000000000000000000000000000000095
:10373400473D000800000000000000006400002075
:1037440000000000490D0008000000000000000017
:10375400723D0008F83900082C3900086800002080
:10376400BC02002029120008000000000000000034
:10377400803D00080C3A00082C3900086A0000203B
:10378400D002002029120008000000000000000000
:103794008E3D0008203A00082C3900086C000020F7
:1037A400E4020020291200080000000000000000CC
:1037B4009C3D0008343A00082C3900086E000020B3
:1037C400F802002029120008000000000000000098
:1037D400AA3D0008483A00082C390008700000206F
:1037E4000C03002029120008000000000000000063
:1037F400C93D0008C83A00087C390008740000205C
:10380400140000204515000800000000000000001E
:10381400D93D0008183B00087C39000876000020D8
:103824002C000020451500080000000000000000E6
:10383400000000006F2E0008000000006F2E00083A
:10384400000000006F2E0008000000006F2E00082A
:10385400000000006F2E0008453D00087D0B0008A5
:10386400433D00087D0B0008413D00087D0B000826
:10387400000000006F2E0008000000006F2E0008FA
:10388400000000006F2E0008000000006F2E0008EA
:10389400000000006F2E0008000000006F2E0008DA
:1038A400000000006F2E0008000000006F2E0008CA
:1038B400000000006F2E0008000000006F2E0008BA
:1038C400000000006F2E0008000000006F2E0008AA
:1038D400000000006F2E0008000000006F2E00089A
:1038E400000000006F2E0008000000006F2E00088A
:1038F400000000006F2E0008000000006F2E00087A
:10390400000000006F2E000814380008113300086E
:10391400F437000811330008000000006F2E00087F
:08392400000000006F2E0008F6
:10392C0021300008E92E0008F52E0008072F0008AA
:10393C00112F00081B2F000879110008292F0008EF
:04394C000000000077
:1039500091310008B1310008CD310008E93100088B
:10396000D90D0008190E000800000000490E0008DB
:0C397000450F000800000000F50E0008E4
:10397C00C3330008693300082B320008E116000835
:10398C003D180008E11800083D19000889320008AC
:10399C00A532000855330008C1320008DD3200089A
:1039AC0049330008F9320008F11200083D130008F1
:0C39BC009F3300080533000809330008A1
:1039C800000000200000000000000B0602000000BC
:1039D800DC39000800000008323D0008200002061B
:1039E800000000203A3D00081E000B1104000020D2
:1039F800FFFF000000140050050000003400000024
:103A080020000000FFFF0000000C00500300000031
:103A18003400000008000000FFFF0000000800500C
:103A2800020000003400000004000000FFFF000056
:103A380000040050010000003400000002000000F3
:103A4800FFFF0000000000500000000034000000EC
:103A580001000000D4370008B43700089437000884
:103A68007437000800000000543700080000000008
:103A7800000000000000000000000000000000003E
:103A8800000000000000000000000000000000002E
:103A9800000000000000000000000000000000001E
:103AA800000000000000000000000000000000000E
:103AB80000000000000000000000000000100240AC
:103AC800004400401437000891050000F03A00084F
:103AD80001000000000000000000000000000000DD
:103AE800F83A0008353300083C00000000000200E6
:103AF800003B000801000000083B0008020000002D
:103B08004100000000020000610000000000000009
:103B180000380140143700080E060000403B00083A
:103B2800010000000000000000000000000000008C
:103B3800483B000821330008400000000040000016
:103B4800503B000801000000583B0008020000003C
:103B58008104000000020000A10400000000000031
:103B6800000000000000000000000000000000004D
:103B7800000000000000000000000000000000003D
:103B88000100000002000000030000000400000023
:103B980006000000070000000800000009000000FF
:103BA8007C3600087C360008E4360008EC3600084D
:103BB800F4360008F43600080010000000304F4EBC
:103BC800004F4646004C45442073746174653A20A2
:103BD80025730A0072302F61313A20203078253061
:103BE8003878202072312F61323A20203078253001
:103BF8003878202072322F61333A202030782530EF
:103C080038780A0072332F61343A20203078253012
:103C18003878207231322F69703A20203078253078
:103C28003878207231342F6C723A20203078253061
:103C380038780A0020787073723A2020307825305E
:103C480038780A004661756C74696E6720696E730E
:103C58007472756374696F6E2061646472657373DE
:103C680020287231352F7063293A20307825303872
:103C7800780A00556E68616E646C6564204952511B
:103C88006E3A2025640A0052657365727665642071
:103C9800457863657074696F6E202800537075727B
:103CA800696F757320696E746572727570742028F7
:103CB8004952512000535053454C20696E20746876
:103CC80072656164206D6F646520646F6573206E32
:103CD8006F7420696E646963617465205053500A7B
:103CE800002A2A2A2A2A2048415244204641554C73
:103CF80054202A2A2A2A2A0A00415243485F455852
:103D080043455054207769746820726561736F6EFB
:103D18002025780A0A002A2A2A2A2A2025732025FB
:103D28006429202A2A2A2A2A0A00464C4153485F35
:103D380030005352414D5F3000040C02020002690A
:103D48006E746572727570742D636F6E74726F6CB9
:103D58006C65724034303032313830300072636311
:103D6800403430303231303030006770696F403560
:103D780030303031343030006770696F4035303062
:103D88003030633030006770696F40353030303024
:103D9800383030006770696F40353030303034303B
:103DA80030006770696F4035303030303030300067
:103DB80072657365742D636F6E74726F6C6C657267
:103DC8000073657269616C4034303030343430309F
:103DD8000073657269616C4034303031333830308B
:103DE800006D61696E002A2A2A20426F6F74696E1D
:103DF80067205A6570687972204F53206275696C24
:103E0800642076342E322E302D333838342D6762C4
:103E18006133353834363761356364202A2A2A0AF3
:103E280000286E756C6C29002A666C6F61742A0014
:103E38002B2E000800000000D32E00080000000010
:103E48000000000000000000240000200000000026
:103E58000000000000C20100000103000000000093
:103E68003C000020000000000000000000C201002B
:103E7800000103000024F400C80000004C000020EA
:103E88004C000020FFFFFFFFFFFFFFFFFFFFFFFFCA
:043E9800FFFFFFFF2A
:103E9C000000000000000000000000000000000016
:043EAC000000000012
:043EB00015E015E024
:04000005080006A544
:00000001FF
