:020000040800F2
:1000000000110020550A00085D2C0008410A000874
:10001000410A0008410A0008410A000800000000E7
:10002000000000000000000000000000150B0008A8
:10003000410A000800000000B50A0008BD180008C9
:10004000650C0008650C0008650C0008650C0008CC
:10005000650C0008650C0008650C0008650C0008BC
:10006000650C0008650C0008650C0008650C0008AC
:10007000650C0008650C0008650C0008650C00089C
:10008000650C0008650C0008650C0008650C00088C
:10009000650C0008650C0008650C0008650C00087C
:1000A000650C0008650C0008650C0008650C00086C
:1000B000650C0008650C0008650C0008650C00085C
:1000C000650C0008650C0008650C0008650C00084C
:1000D000650C0008650C0008650C0008650C00083C
:1000E000650C0008650C0008650C0008650C00082C
:1000F000650C0008650C0008650C0008650C00081C
:10010000650C0008650C0008650C0008650C00080B
:10011000650C0008650C0008650C0008650C0008FB
:04012000650C000862
:1001240053B94AB9002908BF00281CBF4FF0FF315A
:100134004FF0FF3000F00CB8ADF1080C6DE904CEBF
:1001440000F008F8DDF804E0DDE9022304B07047AC
:10015400704700BF2DE9F04786468C460846154691
:1001640074461946089E002B40F0C2808542B2FABC
:1001740082F245D94AB1C2F1200300FA02FC2EFAF8
:1001840003F3954043EA0C0C94404FEA154EBCFB34
:10019400FEF8A8B20EFB18CC08FB00F9230C43EAC6
:1001A4000C43994528D9EB1808F1FF3704D2994537
:1001B40002D9A8F102072B44A3EB0903B3FBFEFC0D
:1001C4000EFB1C330CFB00F0A4B244EA0344A0422F
:1001D40014D92C190CF1FF3304D2A04202D9ACF18A
:1001E40002032C44241A43EA07401EB10023D440DE
:1001F40034607360BDE8F0874746DDE76346F1E7A6
:1002040092BB0121431B4FEA154EB3FBFEFCAFB278
:100214000EFB1C330CFB07F8200C40EA0343984503
:1002240062D9EB180CF1FF3004D2984502D9ACF135
:1002340002002B44A3EB0803B3FBFEFC0EFB1C33B0
:100244000CFB07F7A4B244EA0344A7424ED92C1985
:100254000CF1FF3304D2A74202D9ACF102032C44BF
:10026400E41B43EA0040C0E7C2F12003954020FAB2
:1002740003F12EFA03F34FEA154EB1FBFEFC904056
:100284000343AFB20EFB1C100CFB07F8190C41EA38
:100294000041884504FA02F422D969180CF1FF30B0
:1002A40004D2884502D9ACF102002944A1EB08012B
:1002B400B1FBFEFC0EFB1C110CFB07F79BB243EADF
:1002C40001439F420ED9EB180CF1FF3104D29F4237
:1002D40002D9ACF102012B44DB1B41EA004192E755
:1002E4006046E3E76146F7E76046A3E76346B7E79E
:1002F400834206D916B9002108467BE7C6E900E027
:10030400F9E7B3FA83F78FB9834201D3724508D86A
:10031400BEEB020460EB030301209C461EB90021DE
:1003240068E73846FAE7C6E9004CF8E7C7F1200C5D
:10033400BB4022FA0CF41C434FEA144920FA0CF394
:10034400B3FBF9F8B8402EFA0CF101430EFA07F5A5
:1003540009FB18301FFA84FE08FB0EFA0B0C43EA63
:1003640000439A4502FA07F240D9E31808F1FF3036
:1003740004D29A4502D9A8F102002344A3EB0A034C
:10038400B3FBF9F809FB183308FB0EFE89B241EA06
:1003940003418E452CD9611808F1FF3304D28E45F0
:1003A40002D9A8F10203214443EA0040A0FB0298C9
:1003B400A1EB0E014145CE46434602D306D14D453D
:1003C40004D2B9EB020E68EB04030138002EA6D068
:1003D400B5EB0E0261EB030101FA0CFC22FA07F300
:1003E4004CEA0303F940C6E9003198E74046C5E703
:1003F4004346D9E7F0B585B06A461746174B03F173
:100404000805144618685968083303C4AB422246E9
:10041400F7D118689B882060A380114C20688368FA
:10042400DB680BB10F499847206802F0ECFF80B1FC
:100434003E460025206816F8011B836801355B6879
:1004440098470E2DF6D100214FF4FA5003F03EF8F0
:10045400EEE74FF0FF3005B0F0BD00BF063C0008EA
:100464000800002000000020014B1B68184700BF53
:100474000C000020014B1860704700BF0C000020E6
:1004840030B585B004460D4610220021684603F0BD
:1004940093F802238DF80230044B2A46214668461D
:1004A400019302F0FBF805B030BD00BF6D040008F5
:1004B40080B505460E461746984601F089FE034668
:1004C40003F0E6F80446DFF81890424649F8003095
:1004D40039463046A84754F8090000F0D3FA00BF63
:1004E40008000000074B00205A6822F001025A60FD
:1004F4005A6822F002025A605A6822F004025A60D2
:10050400704700BF002004E00D4A82B0136843F036
:10051400020313600B4B0C4A1A600C4B5A6A42F0EC
:1005240080525A625B6A0A4A03F080530193019B2A
:10053400136823F4C05343F40063136002B070479C
:10054400003C02403000002068FF1F0000380240D9
:1005540000700040014B0360002070478C3A000893
:1005640008B50348034A0021121A02F06DFB08BDC6
:100574006800002060030020074808B5074A0849BE
:10058400121A02F063FBBDE808400648064A074910
:10059400121A02F05BBB00BF0000002064000020C0
:1005A4001841000800000020000000201841000845
:1005B40038B505460C4699B1D1E901230F480968BD
:1005C40002F034FBD4E90423E1680D4802F02EFB69
:1005D400E1690C4802F02AFBA1690B4802F026FBF2
:1005E400012D05D1EFF305810848103902F01EFBF7
:1005F40021462846BDE8384001F07EBA143C000884
:10060400443C0008743C0008843C0008B33C0008E7
:1006140030BFFFF7FDBF00BF2DE9F04105460B4E8B
:10062400DFF82C80324606EB0807CC1B204609492C
:1006340002F0B4FFA01942460021083C02F0BCFFBE
:100644002C6707F10800BDE8F08100BF000000003E
:10065400040000008C3A0008054B5A699B689A42D2
:100664001FBF044A536843F080535360704700BF70
:100674003003002000ED00E02DE9F8432B4D8046C7
:100684002B481746894602F0D1FAAB6ADA0622D51E
:10069400284802F0CBFA1124AB6A1B0703D526487D
:1006A40002F0C4FA1224214DAB6A9E0715D52348E3
:1006B40002F0BCFA6E6BAB6A1C0634D53146204896
:1006C40002F0B4FAB9F1000F03D0AB6A23F080034F
:1006D400AB62132403E01024DEE76FF01506134D1C
:1006E400AB6AD80703D5174802F0A0FA1424AB6A02
:1006F400D90602D4AB6A9A070BD50C4B5B681B0571
:1007040007D54146304600F065FA10B180F30988F8
:100714000224064A2046936A43F0FF0393620023AF
:100724003B70BDE8F8836FF01506D2E700ED00E0FA
:10073400C73C0008DE3C0008123D0008263D0008C6
:100744003F3D0008563D000810B51D4C1D4802F001
:100754006DFAA36A990130D51B4802F067FA1E208E
:10076400A36ADA0103D5194802F060FA1F20144C79
:10077400A36A1B0303D5164802F058FA2120A36A82
:10078400590303D5134802F051FA22200C4CA36AF2
:100794009A0303D5104802F049FA2320A36ADB0325
:1007A40003D50E4802F042FA2420054A936A6FEA00
:1007B40003436FEA1343936210BD1D20D0E700BFCB
:1007C40000ED00E0763D00088F3D0008A33D0008E1
:1007D400BE3D0008DD3D0008033E00081E3E000843
:1007E40070B5204C064620480D4602F01FFAA36A55
:1007F400D90435D51D4802F019FA1720A36A1A0541
:1008040003D51B4802F012FA1820164CA36A9B0564
:100814000FD5184802F00AFAA16BA36A180407D589
:10082400154802F003FA1EB1A36A23F40043A3623D
:1008340019200C4CA36A5A0503D5104802F0F6F9A6
:100844001A20A36ADB0503D50D4802F0EFF91B203B
:10085400044A936A43F47F43936200232B7070BD70
:100864001620CBE700ED00E04A3E0008613E000898
:10087400123D0008733E00088D3E0008A33E0008A8
:10088400BF3E00082DE9F0415B4B04465F6800253C
:100894008AB0C7F3080685F31188BFF36F8F02F09F
:1008A4007F43B3F17F4F06D102F00C03082B13D121
:1008B400524802F0BBF900252C464FF00008F31E05
:1008C4008DF80780092B00F28680DFE803F00A7AAE
:1008D4007E7684848484848210074CBF0C46012570
:1008E400EBE74748444E02F0A1F98DF80780F36A1C
:1008F4009A0704D5434802F099F9002330E0F36ADB
:10090400002B01DA4048F6E7F36A5B00F5D53F486F
:1009140002F08CF97369A26943F480737361BFF3C5
:100924004F8FBFF36F8F736932F8022C23F48073F7
:100934007361BFF34F8FBFF36F8F4DF602739A420B
:1009440009D0B36ADBB253B301210DF1070220468B
:10095400FFF792FE33E021682D4802F067F923681F
:100964009DF80720C2B902AE04F120073246206880
:100974006168083403C2BC421646F7D1099AB5B37C
:10098400C2F3080121B96FEA52226FEA42220992A6
:10099400184602A9FFF70CFE0AB0BDE8F081B36A5D
:1009A40013F47F4F05D001200DF10701FFF718FF65
:1009B40005E0B36AB3F5803F9FD3FFF7C5FE034656
:1009C400CEE700210DF10702C1E700200DF1070178
:1009D400ECE710488FE7104B17F4F87F0F491048E5
:1009E40018BF1946A6F1100202F020F985E722F497
:1009F400FF7222F00102CAE700ED00E0063F0008A2
:100A0400323F00084A3F00086C3F00087B3F000863
:100A14009B3F0008B83F0008ED3E0008D83E0008A0
:100A2400DD3F0008044B5A6942F010025A615A69CA
:100A340022F008025A61704700ED00E0EFF30880ED
:100A4400EFF3098101B57246FFF71CFF01BD00BF3A
:100A54000A4880F30888102080F3118808484FF46E
:100A64000461401880F30988EFF3148002210843DD
:100A740080F31488BFF36F8F02F0F9F8001100209F
:100A840080030020084B9B6883420BD1EFF305835E
:100A940043B1064B5A6842F080525A605A6A22F4B3
:100AA40000425A6201F09ABB3003002000ED00E0DE
:100AB40014498A684FF030001044EFF3098C80E841
:100AC400F01F102080F31288BFF36F8F0E4F4FF08A
:100AD40000664A698A603E60106F0C4C2060506F5B
:100AE4000023536780F3118804B5104600F0D6F84C
:100AF400BDE8044002F1300090E8F01F8CF309884F
:100B0400704700003003002004ED00E008020020DC
:100B14001EF0040F0CBFEFF30880EFF30980816926
:100B240011F8021C0229FFD001B5724602F090F8B8
:100B340001BD00BF40B2002807DB01234109034A7D
:100B440000F01F00834042F82130704700E100E0CC
:100B540040B2002801F10101ACBF00F16040064B36
:100B64004FEA0111C9B2ABBF00F5614000F00F00BC
:100B740080F800131954704714ED00E0054B064A41
:100B840023F0404323F07F039360BFF34F8FBFF301
:100B94006F8F70470000000800ED00E042F8203C31
:100BA400009B0B4942F81C3C019B21F0010142F8D7
:100BB400183C029B42F8081C42F8143C4FF0807326
:100BC40042F8043C0023203A02654367704700BFA3
:100BD400B5040008094A0346906870B113F1160F72
:100BE400006E05D0A0F140029A4205D8834203D298
:100BF400814228BF00207047002070473003002046
:100C040008B515460B4A0C4B9060026F0E461A60ED
:100C140000F044F82C4686F309880020034B9847DB
:100C24002046002100220023014C20478F2C00087D
:100C3400B504000830030020080200201022014BF4
:100C44001A61704700ED00E0002310210348C21828
:100C54000133392B82F80013F9D1704700E100E029
:100C640008B5EFF30583064A103B02EBC30152F8C3
:100C7400330049688847BDE80840FFF7EDBC00BF72
:100C8400603800080121024B024A034800F076B89C
:100C940000400120000000208C3A00084021026E30
:100CA400044B403A1A60044A1846C3E90112012170
:100CB40000F06EB80C02002000000B15084AC2F8C0
:100CC40098000B6823F01F03034343F01003C2F89A
:100CD4009C308B6843F00103C2F8A030704700BF1A
:100CE40000ED00E02DE9F0430E461F4604464FF0A8
:100CF4000009DFF8588085B0B14523DA6068D8B1BF
:100D04003FB1411E08421BD11F2819D9236819423B
:100D140016D12368019301F0CCFFA3680343039326
:100D2400D8F89050D0B2C5F30725013DA84207D8A2
:100D340001A9FFF7C3FF421C09F101090C34DBE7E9
:100D44006FF01502104605B0BDE8F08300ED00E039
:100D54000522044BC3F89420BFF34F8FBFF36F8F6A
:100D6400704700BF00ED00E0BFF35F8F0022024B2D
:100D7400C3F89420704700BF00ED00E010B5034CA9
:100D840001232278FFF7AEFF207010BD5C03002022
:100D940008B50B4A00231278FFF7A4FF10F1160FD1
:100DA40007D00021074AD2F89030C3F307239842B2
:100DB40000DB08BDC2F89800C2F8A0100130F2E7C9
:100DC4005C03002000ED00E02DE9F043534B544C4C
:100DD400D3F890302568C3F307239D4285B000F211
:100DE4009A80FFF7C1FF00200C2685421AD14D4C92
:100DF40068462570FFF7AEFB002506464A4FDFF82C
:100E04001C81DFF82891AE4213D100202378434996
:100E1400D1F89020C2F30722934276DBFFF798FFC4
:100E2400002042E0616806FB0011FFF747FF013034
:100E3400DBE700984FEA051C00EB0511CB683B404B
:100E4400B3F5000F48D00AD8B3F5001F30D0B3F57E
:100E5400800F36D0B3F5801F10D00135D3E7B3F13E
:100E6400807F42D0B3F1007FF7D150F80C3088680E
:100E740001F01FFF4A6840F4802009E050F80C306C
:100E8400886801F016FF4A6840F0885040F430202A
:100E9400CDE901230390D8F890302078C3F30723D9
:100EA400013B98422AD96FF0150005B0BDE8F083E4
:100EB40050F80C30886801F0FCFE4A6840EA0900EA
:100EC400E6E750F80C30886801F0F3FE40F0C060AB
:100ED4004A6840F40030DBE750F80C30886801F0D1
:100EE400E8FE4A6840F08270D2E750F80C30886817
:100EF40001F0DFFE4A6840F08870C9E701A9FFF7F6
:100F0400DDFE237801332370A7E7C1F89830C1F8D8
:100F1400A00001337CE74FF0FF30C6E700ED00E0AE
:100F2400983A00085C0300200000F0FF000008115C
:100F340008B5024B1B689847002008BD1802002022
:100F4400034B044A1860937843F00203937070478C
:100F5400180200201000002008B50649064821F0B8
:100F64000701C1F1005202F5A03201F020FE002079
:100F740008BD00BF471100201C020020044B184488
:100F840000230133994200F8012BFADC704700BFBB
:100F9400400000202DE9F041054600264FF00108ED
:100FA4000E4F6B78F4B2A34201D8BDE8F0812B78E0
:100FB4001C44204600F0C0F868B1204600F0CCF88C
:100FC40057F834303BB107EBC40204F01F045168F6
:100FD40008FA04F098470136E3E700BF280200202E
:100FE400034660B1B0FA80F2C2F11F02D2B20549E1
:100FF4008856054A11680B431360FFF79BBDFF2217
:10100400F5E700BF4000002000040140024A1368D5
:1010140023EA00031360704700040140032921D828
:10102400DFE801F0020C10190F4B9A6822EA000263
:101034009A60DA6822EA0002DA6070470A4B9A681A
:101044000243F5E7084BDA680243DA609A6822EA59
:1010540000029A607047044B9A6802439A60DA6807
:101064001043D860704700BF0004014030B5B0B1F0
:10107400B0FA80F3C3F11F03DBB20B4850F83340DE
:101084008C4204D100EBC3056D68954205D044B988
:1010940040F8331000EBC3004260002030BDFF2352
:1010A400EBE76FF00F00F9E72802002060B1B0FA17
:1010B40080F3C3F11F03DBB20021044A42F833106A
:1010C40002EBC30251607047FF23F5E728020020BA
:1010D4000F2300F0030204329200934043EA90008D
:1010E40000F00303064A023352F82320030C93FA58
:1010F400A3F3B3FA83F302EA1040D840704700BF69
:101104000000014013B50B4C204602F07CF958B1A5
:1011140001232022CDE90023A3681B683BB1694663
:101124002046984702B010BD6FF01200FAE76FF046
:101134005700F7E7203700081F2809D8012303FACE
:1011440000F0044B5B6998430CBF012000207047FA
:101154000020704700040140012300F01F021F28F3
:1011640003FA02F39DBF034A002053616FF0150098
:10117400704700BF00040140024B1868C0F34000F0
:10118400704700BF003802400B88C3F30B03052BE4
:1011940013D813B96FF085007047023B032B17D89F
:1011A400DFE803F01B021B1949F288031360096886
:1011B400B1F5805F13D20020704703F6FA73C3F3CE
:1011C4000B031E2BE6D8094820FA03F3DB07E1D50D
:1011D400074B1B68EAE7074BE8E70023E6E7C1F3A0
:1011E40013310131B3FBF1F31360E4E7030040442E
:1011F400300000200024F40070B53F4C00F0ACF83F
:10120400204600F08BF800F00BFC3C4D3C4AAB68E8
:10121400C3F30313D35C20FA03F613781C41A642EC
:1012240002D2204600F030FCFFF7A6FF012807D0C9
:101234002B6843F001032B60FFF79EFF0128FBD1CD
:101244002E4A536B43F001035363536B9807FCD549
:10125400936803F00C030C2B1BD1FFF78DFF0128BF
:1012640007D0136843F001031360FFF785FF0128DB
:10127400FBD1224B9A6822F0030242F001029A60E9
:101284009A6802F00C02042AFAD19A6822F0F00259
:101294009A601A4D2B6823F080732B602B68990198
:1012A400FCD400F031F82B6843F080732B60134BAF
:1012B4001A689201FCD59A6822F0F0029A609A6842
:1012C40042F003029A609A6802F00C020C2AFAD1E6
:1012D400A64202D3204600F0D7FB0A4B064A002060
:1012E4001A60064B9A6822F4E0629A609A6822F4C3
:1012F40060529A6070BD00BF0048E80100380240A7
:10130400AE40000830000020034A936823F47D03B4
:1013140043F4880393607047003802400B4B9842B3
:101324000B4B08D81A6842F4C0521A60084A536832
:10133400DB06FCD47047074A90421A6822F4C05274
:1013440094BF42F4805242F40062EEE7401640003B
:10135400007000400024F4000A4B82B01A6A42F084
:1013640001021A621A6A02F001020192019A5A6A8F
:1013740042F080525A625B6A03F080530093009BF0
:1013840002B070470038024008B5074802F03BF845
:1013940038B10648FFF7D4FD0448FFF76BF8002086
:1013A40008BD6FF01200FBE740380008B5130008D1
:1013B4000A2838B50446074D04D1AB680D212846E8
:1013C4005B689847AB6803485B68E1B2984720467E
:1013D40038BD00BF403800082DE9F843D0F8048038
:1013E4001746D0F81090D8F808000D461E4601F0B4
:1013F400BEFCB7F5001F044616D12846D8F80840AD
:10140400FFF766FE84420CD1294601F0B0FC044685
:10141400FFF7FCFD2046FFF749FE00212046FFF7B9
:10142400FDFD0020BDE8F883B7F5800F20D0B6F1AC
:10143400806F19D0B6F1C06F18D0B6F1007F1AD101
:1014440002264A4620460F49FFF710FEB0B9284647
:10145400D8F8081001F090FC20463146FFF7DEFD75
:101464002046FFF7BDFDDCE70126EAE70326E8E7AF
:101474006FF08500D6E76FF01500D3E76FF00F002B
:10148400D0E700BF3731000838B503690446586017
:101494000A4D284601F0B7FF60B1AB6861681B686C
:1014A4000C3123B12846984700EAE07038BD6FF04C
:1014B4005700F9E76FF01200F8E700BF2037000883
:1014C4002DE9F047044600251D4F00EBC106B44248
:1014D40001D1002014E02068C30600F01F0911D4D4
:1014E400656845F02005C0F3481AC0F34420192864
:1014F40023D857F82080B8F1000F0DD16FF01200F7
:10150400BDE8F087B9F1100F04D0B9F1110FEAD199
:101514006568E8E73025E6E7404601F074FF0028F7
:10152400ECD04B462A4640460AF00F0101F017FE64
:10153400002804F10804CADAE2E76FF01500DFE7D7
:10154400303B0008F8B50C46036941685D682379AF
:10155400012B34D09A1E56425641B6026279022AB1
:1015640096BF374F4FF4005C37F812C0A279042AB3
:1015740028D0003B18BF01231B03E279012A0A6823
:101584000CBF4FF440770027A542D1681DD121F448
:10159400B05131430B43D360136923F4405343EAFE
:1015A4000C03136143681A68536923F440733B4383
:1015B4005361296801F06BFE00EAE070F8BD4FF456
:1015C400C066CBE74FF48053D7E701F4C0618E4285
:1015D4001FBFD16821F4C0613143D16042681168F2
:1015E4000A6902F4405294451FBF0A6922F440522A
:1015F40042EA0C020A6142681168CA6802F4805225
:1016040093421FBFCA6822F480521343CB604368DD
:101614001A68536903F440739F421FBF536923F44C
:1016240040733B43536121682B68994205D001F014
:101634002EFE0028C2DB23682B600020BEE700BF1B
:10164400003C0008F8B50C464368A6791D68036998
:101654005F680B794979012B35D102294AD9042EC7
:1016640045D04FF4C0624FF480534FF0030C8C45C7
:101674003DD1002B77D0002A14BF03220422B242AA
:1016840035D1E37963B1012B31D1394B9D4207D078
:10169400A3F574439D4203D003F580639D4226D194
:1016A400EB68214623F40053EB60FFF74BFF00285F
:1016B4001DDBEB6843F40053EB6094E8030087E818
:1016C4000300002015E0022B06D102291FD9042EA5
:1016D4000DD04FF48062C6E702290A461FD9042EB2
:1016E40002D123B90022BEE713BB0329C7D06FF090
:1016F4008500F8BD1F4A042E32F811C0F7D04FF40C
:10170400C062033B012BF2D94FF4805319E0194A0C
:10171400042E32F811C0EAD04FF48062F1E7154A82
:10172400042E32F811C009D1002BE0D11A46EBE7A0
:10173400033B012BDBD9D5E70022E2E7002BFBD1E9
:101744001A46BCF5805F08D0BCF5405F08D0BCF1F8
:10175400000F8AD14FF0010C89E74FF0000C86E7A7
:101764004FF0020C83E7002A14BF0222032286E70B
:1017740000380140003C0008F7B505464468066996
:101784002B48306001F03FFE18B96FF0120003B02F
:10179400F0BD3068E16883681B68002B42D098472D
:1017A4000028F4DB0021206A01AA01F0EDFC0028E6
:1017B400EDDB019B002219791868FFF781FE0028F0
:1017C400E5DB6E682B6934685F68E36823F40053D3
:1017D400E360706801F017FE0028D6D0D6E9010155
:1017E4008368DB6803B1984704F10C0353E8003FB6
:1017F40043F00C0304F10C0141E80032002AF3D158
:1018040039462846FFF79EFE00280EDB337D1BB1C8
:10181400636943F008036361E368002043F4005301
:10182400E360B4E76FF05700B1E76FF01500AEE77F
:10183400203700084FF0E02310B50F499C691A695E
:1018440008689B690D4902F4803234B993B90346A0
:101854004AB90A681044C01A10BD002B08BF0346D9
:101864000AB9A342F5D90A6802440A604FF0E0229B
:101874001269EEE70446F3E72C030020200300205E
:1018840010220A4B002083F823204FF47A62084B7D
:101894001A60084B40F69F7218604FF0E0235A61BB
:1018A40098611A6942F007021A61704700ED00E07E
:1018B4002C03002020030020684620F007018D46F9
:1018C40001B5FFF7B7FF0D4B0D4A186811680844BE
:1018D400106000224FF47A611A600A4A1368C01A31
:1018E400B0FBF1F001FB0033136000F05BFEFEF788
:1018F400B3FEBDE801408546704700BF20030020C9
:101904002803002024030020F8B5314F81B1421C84
:1019140009D14FF0E022136923F0010313614FF062
:101924007F433B60F8BD3D68012806DC00240AE0E3
:10193400431C3D68F8D141F2610041F262039842D0
:10194400A8BF1846441EEFF31186102383F31288B0
:10195400BFF36F8FFFF76EFF4FF0E0230022DFF835
:1019640074C09969DCF8003018441B4B1A601B4B97
:101974001A68831A28D44FF47A6E0EFB043404F6E2
:101984009F74B4FBFEF4131A0EFB0433B3F5806F9B
:1019940038BF4FF48063124A934228BF13464FF076
:1019A400E0223B60013B946953610023A1429361AF
:1019B400A1EB040338BF5B191844CCF8000086F38C
:1019C4001188BFF36F8FADE74FF48063E7E700BF83
:1019D4002C030020280300202003002024030020DF
:1019E400A0EBFF0038B5EFF31185102383F31288C1
:1019F400BFF36F8F084B1C68084B1B68E41AFFF792
:101A040019FF85F31188BFF36F8F4FF47A63204475
:101A1400B0FBF3F038BD00BF2803002024030020EE
:101A240008B5154B9A6802F00C01082921D00C293D
:101A340003D0042915D1114812E09B68104813F40F
:101A44008033C2F38341415C14BF0E480B48C2F398
:101A5400815218BF0023A1FB00010132FEF760FB95
:101A640008BD4FF400405B68C3F342330133984030
:101A7400F6E70448F4E700BF003802400024F4000D
:101A8400BE40000800127A00154B421E9A4225D22D
:101A9400144A136803F4C053B3F5006F15D1124B05
:101AA40098428ABF114A00231368104982BF43F049
:101AB4000403136001230A6822F001021A430A6036
:101AC400086800F0010058407047136803F4C053DD
:101AD400B3F5805F0CBF064B064BE1E7012070476E
:101AE4000048E801007000400024F400003C02407B
:101AF40000127A0080841E0038B5EFF3118510239C
:101B040083F31288BFF36F8F064B9C6801F08EFC41
:101B140085F31188BFF36F8F2046BDE83840FEF788
:101B2400B1BF00BF3003002038B50A4B53F8204042
:101B3400013053F82050A54200D838BD606830B158
:101B4400037FDB0701D401F046FC0834F3E7236884
:101B54009847FAE7E83B0008012270B5294B0320B7
:101B640086B01A70FFF7E0FF00F092FD0420FFF743
:101B7400DBFF254C254D2646AE4204F1300410D33C
:101B840000F032FA204C224EAC4226D300F040FA48
:101B9400FEF730FC1F4A137B23F00103137306B0D6
:101BA40070BD54F80C3C059354F8103C049354F85D
:101BB400143C039354F8183C029354F81C3C0193CE
:101BC40054F8203C009354E90A2354E90C0100F032
:101BD400C1F854F8303C5E65CDE7D4E90A23B3F18B
:101BE400FF3F08BFB2F1FF3F05D052EA030120686E
:101BF40003D100F0C9FA3034C6E73146183000F09A
:101C040041FCF8E75D030020283A0008283A000860
:101C1400C9340008E80000200023012270B586B012
:101C2400CDE904230F220193CDE902321423114E8E
:101C3400114D06EBC01603FB005504464FF4A0708B
:101C44000E494FF4807200FB04110D4B3046009591
:101C540000F080F8737B0B4A23F0040373734FF492
:101C6400046304FB03331344EE602C746B6006B00E
:101C740070BD00BF6800002030030020C00B0020AE
:101C84003734000880030020BFB50020FFF74CFF65
:101C9400284B83F30888284C00256369274F43F4B5
:101CA40000736361F02384F82230E5772576657646
:101CB400A57684F82050636A43F4E0236362FEF758
:101CC400B1FEFEF7BBFF4FF0FF33A362E362FFF701
:101CD4007BF8FEF7D7FF1A4800F088F8FEF714FCEB
:101CE4000120FFF721FF0220164CFFF71DFF00F033
:101CF400C3F9154B15495C61154B4FF4806205938C
:101D040001232046CDE90353CDE901553B46009517
:101D140000F020F80646627B204622F0040262733B
:101D240001F0A4FB2846FFF777FF3A4631462046E8
:101D3400FEF766FFC00B002000ED00E05D1B00080D
:101D440068010020E800002030030020000D00207E
:101D5400C74000082DE9F04385B00E4610991F4690
:101D640000F15803C0E9163301730023042104462B
:101D7400073222F007027F328360417322F03F0270
:101D84000F983F2AC4E90633A073E37306F14009B0
:101D9400A2F1400805D883F31188BFF36F8F08467A
:101DA40002DFB51829462046FEF736FC0E9B0730A5
:101DB40020F00700A066C4E9189802930D9B2D1A21
:101DC40001930C9B2A46009331463B462046FEF77E
:101DD400E5FE00236365044B9B6803B1DB6E284674
:101DE400E36605B0BDE8F0833003002040F2011340
:101DF40083810023C0E91833C366014B98607047A0
:101E0400300300206FF00A01084A93689967084973
:101E140058674B6843F080534B60002383F3118869
:101E2400BFF36F8F9368986F704700BF3003002033
:101E340000ED00E070B590F90D20437B002A36DBFD
:101E4400D90634D11B4C63F07F032246437352F806
:101E5400183FE169934207D1C0E900210860E061BD
:101E640011E09942F8D01B68002BF5D090F90E5080
:101E740093F90E60B542F4D0AE42F2DD5968C0E980
:101E8400003108605860A569954200D005B9E5683D
:101E9400A3685A7BD20604D1DA897F2A01D9AA69B8
:101EA40032B1AB4202D0284600F066FA656170BDDB
:101EB4006361FCE73003002038B590F90D2001463A
:101EC400002A437B04DA03F07F03437301F0BCFA76
:101ED4000D4D2A4652F8184FAB68944200D004B90D
:101EE400EC688B4207D05A7BD20604D1DA897F2A68
:101EF40001D9A2692AB1A34202D0204600F03CFADB
:101F040023466B6138BD00BF3003002070B590F9E3
:101F14000D200146002A437B04DA03F07F03437358
:101F240001F092FA1C4C4B7B224663F07F034B7307
:101F340052F8183FE069934207D1C1E900200160DB
:101F4400E16111E09842F8D01B68002BF5D091F9BB
:101F54000E5093F90E60B542F4D0AE42F2DD5868EB
:101F6400C1E9003001605960A569A368954200D0B9
:101F740005B9E5688B4207D05A7BD20604D1DA89C9
:101F84007F2A01D9AA692AB1AB4202D0284600F0BF
:101F9400F3F92B46636170BD3003002049B9EFF3B8
:101FA400058030B9054B5A699B689A4201D0FFF706
:101FB40029BF81F31188BFF36F8F7047300300206E
:101FC400034648B9EFF3058232B9064A516992686B
:101FD400914201D0FFF716BF83F31188BFF36F8FCF
:101FE400704700BF30030020EFF31181102383F307
:101FF4001288BFF36F8F054B9A68D37B013BD37371
:1020040081F31188BFF36F8F704700BF3003002046
:1020140070B5EFF31186102383F31288BFF36F8F2B
:10202400144DAB68DA7B0132DA732A4652F8184F42
:10203400944200D004B9EC685A7BD20604D1DA8900
:102044007F2A01D9A2692AB1A34202D0204600F016
:1020540093F923466B6186F31188BFF36F8FEFF317
:102064001180102383F31288BFF36F8FBDE8704093
:10207400FFF7A6BF30030020024B03F11802C3E9A7
:10208400062270473003002070B5EFF31186102349
:1020940083F31288BFF36F8F1B4CA168E0690B6850
:1020A400814214BF1A46002249680B605960A36834
:1020B400E1692AB9154AC3E900210B60E3610CE028
:1020C40093F90E0092F90E50A84218D0854216DDFD
:1020D4005168C3E900210B605360A5690B4B9D4215
:1020E40000D005B9E568A3689D4202D0284600F0F7
:1020F40043F965613046BDE87040FFF783BE8A420C
:10210400D8D01268D5E700BF300300204803002070
:10211400F8B550EA010306460C4603D1FFF7B4FFB5
:102124000020F8BDEFF31187102383F31288BFF367
:102134006F8F124D124BA8681860FFF7BDFEA86898
:10214400234632460F49183000F09CF9AA68044629
:10215400537B384643F004035373FFF753FEAB68D5
:10216400D3E90A23B3F1004F08BF002AD8D101F004
:1021740011FA201A20EAE070D3E700BF30030020F0
:1021840050030020C934000838B50446EFF3118524
:10219400102383F31288BFF36F8F437B5B070FD544
:1021A400183001F0CFF9637B204623F004036373F6
:1021B400FFF740FE2946BDE838400448FFF7EEBE6D
:1021C40085F31188BFF36F8F38BD00BF5E03002015
:1021D400014B9868704700BF300300202DE9F84395
:1021E4000446077BEFF31185102383F31288BFF3B2
:1021F4006F8F437B190705D585F31188BFF36F8F64
:10220400BDE8F883D90943F008025DD14273A3689D
:1022140013B1204601F020F904F1180001F092F9FD
:10222400A66D04F15808B04511D04FF0000976B1FD
:10223400304601F011F906F1180001F083F9304637
:10224400C6F87890FFF7F6FDA66DB045EFD1DFF83C
:10225400C080D8F808309C423ED1EFF30589B9F12B
:10226400000918BF4FF00109D8F81860294A9642AE
:1022740000D00EB9D8F80C60B34202D0304600F05A
:102284007BF82046C8F8146000F0FCFCB9F1000F9C
:1022940002D02148FFF7AAFDD8F808309C4231D17A
:1022A400EFF3058373BB227BD20718D42846FFF7CC
:1022B400A9FDFB07A4D5002383F31188BFF36F8F17
:1022C4000423184602DF9BE703F07F0343F008036F
:1022D400437301F0B9F89AE74FF00009C4E785F3B6
:1022E4001188BFF36F8F83F31188BFF36F8F0423BB
:1022F400184602DFEFF31180102383F31288BFF333
:102304006F8FD4E785F31188BFF36F8FD1E700BFD8
:102314003003002048030020680100200122044B00
:10232400C01A044BC0105843034B1A54704700BFE3
:10233400E8010020ABAAAAAA5E030020C3897F2B70
:1023440012D80A4B1B6863B1094B90F90E201B6825
:102354009A4209DB437BDB0606D1064BC31A18BF3E
:10236400012303F0010070470023FAE73400002042
:10237400540300206800002070B50E4B0E4C1E7CE8
:10238400182303FB06440546204601F0DBF800222F
:102394000A4B28469A55FFF7D1FF48B1084B20460F
:1023A400BDE870401A680749013AD31700F06AB8CB
:1023B40070BD00BF30030020E80100205E03002050
:1023C400340000202123000838B5EFF311851023D1
:1023D40083F31288BFF36F8F104B114A9C68106807
:1023E400A04206D1FFF7C8FF85F31188BFF36F8FB2
:1023F40038BD00211B7C11600A4AD35C002BF3D04A
:102404002046FFF79BFF0028EED0637BDB0602D15A
:102414002046FFF77BFD2046E4E700BF30030020A1
:10242400500300205E030020024B1868984208BF46
:102434000020704738000020034B1B680BB9FFF7DE
:10244400D1BA0020704700BF5803002030B570B1E6
:102454000B4B5B6898420AD0036843B1D3E904216B
:10246400D0E90445121941EB0501C3E90421D0E97F
:10247400003213605A600023C0E9003330BD00BF4E
:1024840038000020B3F1FF3F08BFB2F1FF3F2DE950
:10249400F84F0446994615461F467AD08160EFF3FB
:1024A4001188102383F31288BFF36F8FB9F1000FE3
:1024B400DFF8E4A020DBFFF7BFFFDAE900270135EE
:1024C40049F100092D1849EBE07306464FF0010964
:1024D400C4E90453AD1843EB0707FFF7A5FF034610
:1024E400DFF8B8E0DEF804A0EBB9C4E900EACAF802
:1024F4000040CEF8044028E06FF00103DAE900124E
:102504005B1A4FF0FF3161EB02025B1B62EB0902C5
:10251400012B72F10001BCBF012300224FF000091E
:10252400C0E90432D9E7D3E9041CD4E904208A427F
:1025340070EB0C0B24DA891A5A686CEB0000C3E9BF
:102544000410C4E9003214605C60FFF76DFF84423C
:102554000ED1134B1B685BB9B9F1000F02D1FFF721
:102564006BFF0646304600F0D6FF0021FFF7CCF99A
:1025740088F31188BFF36F8F28463946BDE8F88F7A
:10258400521A60EB0C009A45C4E90420ADD01B68D4
:10259400AAE700252F46EFE70002002038000020BC
:1025A400580300202DE9F047EFF31185102383F33E
:1025B4001288BFF36F8FDFF8A0900026C9F80000DF
:1025C4000027FFF731FFDFF89480D9F80030D8E90D
:1025D40000ECD91750B1D0E90442A34271EB020ACE
:1025E4001BDAE41A62EB0102C0E90442002413EB93
:1025F4000E034CEB01012046C8E90031C9F8004044
:1026040000F089FF2146FFF77FF985F31188BFF3B6
:102614006F8FBDE8F047FFF7D7BE14EB0E024CEB0B
:10262400E473C0E90467C8E90023FFF70FFF85F3EB
:102634001188BFF36F8F83689847EFF311851023D8
:1026440083F31288BFF36F8FD9F800301B1BC9F8CE
:102654000030FFF7E9FEB8E758030020000200202D
:1026640010B5EFF31184102383F31288BFF36F8F37
:10267400FFF7E2FE0346054AD2E90001181841EBD0
:10268400E37184F31188BFF36F8F10BD0002002043
:10269400014800F0CBBA00BFCC4000082DE9F04F50
:1026A40043688DB00293837815469A07804640F1BB
:1026B4000D8100240E78002E00F00A81252E0BD007
:1026C4004B1C0393013441463046029B9847002833
:1026D400C0F2F6800399EDE74E788B1C252E039308
:1026E400F0D00027B946BB46BBF11F0F38D8A6F17E
:1026F4002003102B0AD8DFE803F02A09093009095E
:10270400092109090928092D09091F00A6F1300327
:10271400092B33D92A2E37D11BF0400F55F8043B2F
:1027240040F08280002BA7BF99464BF0200BC3F1E9
:1027340000094BF0280B01E04BF0010B039B13F84D
:10274400016B0393002ECFD130E04BF0020B4BF022
:10275400040BF3E74BF0080BF0E74BF0100BEDE73D
:10276400BBF17F0F19D8A6F13003092BD2D81BF087
:10277400400F03D00A2101FB0737DFE70A214BF0A2
:10278400200B01FB0939D9E72E2E06D11BF0400F8F
:1027940040F09E804BF0400BD0E76C2E31D02BD80C
:1027A400682E36D06A2E3CD04C2E3AD0002F46F0FC
:1027B4002003B8BF2BF04002A3F16501BCBF002782
:1027C4001FFA82FB022901D9612B2FD10727073574
:1027D40025F00705DFF8A8A208351BF0080F66D01E
:1027E40056460AEB070B5E4563D1A4EB0A0A06EBD7
:1027F4000A02A9EB07096FE1742E9FD07A2E9DD0AF
:10280400D4E71BF0800F18BF4BF4007B4BF0800B18
:1028140094E71BF4807F18BF4BF4007B4BF4807B60
:102824008CE74BF4207B89E71F4687E7A6F1630119
:10283400122900F2F080DFE811F013004F00EE00DF
:10284400EE00EE00EE004F00EE00EE00EE00EE00B3
:10285400EE00FE00E900EE00EE001B00EE00AF000B
:1028640055F8043B01278DF818300DF1180AB4E728
:1028740055F804AB834BBAF1000F08BF9A461BF01E
:10288400400F14BF39464FF0FF31504600F09CFE14
:102894000746A2E741462020029B984700280FDB09
:1028A400013EB742F6D34C44A41BB14698E74E46CA
:1028B400F7E7414616F8010B029B9847002892DA85
:1028C40098F8023043F0040388F802304FF0FF34E4
:1028D40020460DB0BDE8F08F1BF0800F34D01BF400
:1028E400007F2CD0073525F00705AA4669685AF8F9
:1028F400080B2BF010050029ADB237DA404261EB2A
:10290400410145F480650A230DF1180B5A4600F085
:1029140067FEA0EB0B0301936B0662D5019B25F0C8
:1029240001019F4289B240F3A180002E00F09980FA
:1029340015F0100240F09C80BB460D4623E0AA46E9
:102944005AF8040BC117D4E7AA461BF4807F5AF83F
:10295400041B01D10846F5E71BF4007F15BF48B2FC
:1029640008B241F3C01141F3C031C2E750EA010398
:10297400C9D11BF0400FC6D0002FC4D12BF01102D7
:10298400BB4695B2019740F2064115EA01021CBF0D
:1029940000220BF1010B2CE00A232BF010021FFA8A
:1029A40082FB1BF0800C49D01BF400711DBF07355E
:1029B40025F00705AA46AA461ABF5AF8080B696803
:1029C4005AF8040B50EA010545D12BF016051BF00B
:1029D400400FADB242D0002F40D12BF0170295B278
:1029E400019715F0100248D0019B002E42D103F14B
:1029F400010B29075AD4EB0706D5D9456FDDA9EB9E
:102A04000B03CB4601995F185B4649E010237826F7
:102A14004BF0100BC5E7782B04D1C6F1780343F0D3
:102A24001003BEE741462520029B98470028FFF685
:102A340047AF023447E608230026B2E7AA461BF450
:102A440080715AF8040BBDD01BF400711ABF6146A3
:102A5400C0B280B2B6E72BF0060295B20DF1180BA6
:102A640054E725F01105BB46ADB28CE70D46B8E737
:102A74003B460D4603F1020BBBE7DDF804B082E7E9
:102A84000E41000807410008CDE9043241462020E8
:102A9400029B98470028FFF613AF049B059A013365
:102AA4009945F1DCA4EB0B019B46CC180AB34146D3
:102AB4003020029B98470028FFF602AF8EB90134FC
:102AC4002744019B391B994223DC1D4655BB5546BF
:102AD400019AA9EB0B0922441446914434E0019F66
:102AE40092E7414630460234029B98470028E7DAD1
:102AF400E6E640F206410D42E2D015F0020F14BFA3
:102B04002B20202015F4806F414618BF2D2001345E
:102B1400EAE741463020029B9847002804F101046B
:102B2400CFDACDE606AB013D585D4146029B98479E
:102B34000028CBDAC4E641462020029B98470028AF
:102B440004F10104FFF6BCAEA9EB0403002BF2DC94
:102B5400C0E500BF704700EBC100408840087047E3
:102B6400F8B50346FFF7F7FFB0FA80F0C0F11F0095
:102B740003EB800CDCF81060CA00171D0C4606320B
:102B84008DB256B9012101FA00F0D9680143D96028
:102B9400CCF81040DD539D52F8BDF1000431585A71
:102BA400D85303EBC0009E52C5805D52F4E7043A4B
:102BB4002DE9F041CC1D114424F0070421F0070154
:102BC4000E1BF708B7FA87F24FF00008C2F124058C
:102BD400AD000735C2F12002ED0804604146A7604C
:102BE400C4F80C80920004F1100000F0E5FC6B00C6
:102BF40043F0010363807B1B04EBC5025900A4F876
:102C040000805180A21924F83550A2F80280A35301
:102C140004EBC7035A88294642F001025A80204631
:102C2400BDE8F041FFF79CBF002070470FB407B523
:102C340004A951F8040B0191FDF722FC03B05DF8DF
:102C440004EB04B07047704700F0B6BC00F0A6BCBB
:102C540001460068FDF7ACBC08B5FDF7D9FCBDE83A
:102C64000840FDF7F9BC00210120FDF7A1BC08B51F
:102C7400FDF784FFFDF774FCFDF77EFCFDF7E4FF30
:102C8400FFF702F86FF08500704761B662B680F313
:102C94001188BFF36F8F704772B6002383F31188D6
:102CA400BFF36F8FBFF34F8F30BF62B6BFF36F8F29
:102CB4007047202809D9B0F1004F08D80138B0FA7C
:102CC40080F0C0F11F0040007047082070473E208C
:102CD400704708B5FEF72CF9002008BD08B5062298
:102CE40001210020FEF74AF9002206201146FDF7D3
:102CF4002FFF012107220846FEF740F90022072092
:102D04001146FDF725FF082201210220FEF736F9BE
:102D1400002208201146FDF71BFF09220121032090
:102D2400FEF72CF9002209201146FDF711FF0A22B3
:102D340001210420FEF722F900220A201146FDF7A2
:102D440007FF052117220846FEF718F9002217206D
:102D54001146FDF7FDFE282206210A20FEF70EF992
:102D6400002228201146FDF7F3FE002008BD0120B3
:102D740001F01F01884070470F2300F00302043262
:102D84009200934043EA9000020C92FAA2F2B2FA43
:102D940082F210B500F003039B0003F1804303F5B6
:102DA40080339C68914024EA10400143996010BD2F
:102DB4000B8882B0C3F30B0303F6E472C2F30B0275
:102DC400082A14D803F1804303F50E331A684868BF
:102DD400024300201A600B88C3F30B0303F1804302
:102DE40003F50E331B680193019B02B070476FF02B
:102DF4008500FAE70B88C3F30B0303F6E472C2F30E
:102E04000B02082A9FBF03F1804303F50E331A68AF
:102E140049689BBF00208A436FF085001A607047A1
:102E2400072808D8EA23C34013F0010F14BF002079
:102E34006FF0850070476FF08500704710B5088803
:102E4400C0F30B00FFF7ECFF00281FDB4A68FF2AE2
:102E54001BD093B203F1804303F50E331868C2F319
:102E64008454C2F3054204FA02F220EA02021A6010
:102E740049688BB203F1804303F50E331868CA0E18
:102E8400C1F305418A4002431A60002010BD08883E
:102E940008B5C0F30B0000F6E473C3F30B03082B6F
:102EA4000AD800F1804000F50E3002684B68934365
:102EB40014BF0120022008BDFFF7B2FF002814BF91
:102EC40001200220F7E7436800205B681B690B6060
:102ED400704743685B68586942400A4042405A61FF
:102EE40000207047436800205B689961704743681D
:102EF40000205B6899627047436800205A685369F0
:102F04004B405361704710B503699868F8B1884223
:102F140019D1DC680868A142986000D1D86000200B
:102F240008602AB19A680A60DA68996002B9D960BF
:102F3400002010E0814206D108682060D8688142F0
:102F4400EDD1DC60EBE7044600680028F2D1002AEA
:102F5400E8D16FF0150010BDF0B544680120676832
:102F640088401E46C2F3801327EA00078B403B4388
:102F740090FAA0F7B7FA87F74FF0030E6360D4F81E
:102F840008C07F000EFA07F72CEA070C90FAA0F7A6
:102F9400B7FA87F7C2F3C1137F00BB4043EA0C03BF
:102FA400A36090FAA0F3B3FA83F3E7685B000EFA28
:102FB40003F327EA030790FAA0F3B3FA83F302F0CA
:102FC40030055B00C2F341229A403A43202DE2606F
:102FD40016D107292BD890FAA0F3226A2BB3B3FA9F
:102FE40083F30F219B0001FA03F322EA030290FA10
:102FF400A0F3B3FA83F39B0006FA03F313432362AB
:1030040090FAA0F3B3FA83F390FAA0F00321B0FA94
:1030140080F022685B002D0901FA03F3400022EAE4
:10302400030385401D432560F0BD2B46D9E7030A01
:10303400616A93FAA3F282B1B2FA82F293FAA3F329
:103044000F27B3FA83F3920007FA02F29B0021EAF6
:1030540002029E4016436662D2E72A46EEE712F465
:10306400003CF8B50C4613461DD0960714D55507F9
:103074005CD55022D90611D542F4007203F4C06124
:10308400B1F5806F42D0B1F5C06F19D0B1F5007FB2
:1030940018D142F0800215E01022EBE79F06EDD52F
:1030A40042F48062EAE7D60305D5D50605D4C2F317
:1030B40040129202E2E73022E0E74FF40072DDE7CB
:1030C40042F4C07213F44036056908D02F6927FA18
:1030D40004F1C9075FBF0121A14039432961BCF153
:1030E400000F06D01F03416813D501234968A3408C
:1030F4008B61002321464068FFF72EFF26B92B6918
:1031040023FA04F2D2070BD40020F8BD42F48072F3
:10311400D8E75F0341BF01234968A3408B62E8E716
:103124000122A24023EA02032B61EDE76FF0850040
:10313400EBE770B50B468968054611B15E680C680B
:1031440001B970BD8A682A4002D030464B6898475E
:103154001CB1236821461C46F2E72346FAE7F8B57A
:103164001F46044640680E461546FFF7F5FE112F2C
:1031740008D1012303FA06F663682A055B684CBF8D
:103184009E619E620020F8BD30B503681360057926
:10319400046804EBC504A34202D36FF0010030BD00
:1031A4005C798C4201D00833F0E70020F7E74368EC
:1031B400C1F34B101B6801F01F01C05801238B4061
:1031C400034214BF0123002300201370704710B57D
:1031D4004368C1F34B101A680123845801F01F019E
:1031E4008B4023438350002010BD012210B5436857
:1031F400C1F34B14186801F01F0123588A4023EAD5
:1032040002032350002010BD38B504460D46FFF7D5
:10321400DEFF29462046FFF7E8FF002038BD03689B
:1032240082B00193019B43680193019B02B07047F4
:1032340008B54368186802680368C2F3C002D90776
:10324400036848BF42F002029B07036848BF42F08C
:1032540004025907036848BF42F02002DB0542BF5D
:103264006FF4807342F008020360D10701D5FFF7C1
:10327400D6FF930701D5FFF7D2FF510701D5FFF71A
:10328400CEFF930601D5FFF7CAFF104608BD37B538
:1032940043680D461C68026919B96FF0150003B044
:1032A40030BD1068D9688368DB68F3B101AA984718
:1032B4000028F4DB1922E368AD0023F40043E36043
:1032C400019B53436422B3FBF5F1B1FBF2F002FB23
:1032D40010131B013233B3FBF2F303EB00130F2B78
:1032E400DBD99BB20020A360D9E76FF05700D6E783
:1032F40010B5436810201B681A681206FCD5EFF35A
:10330400118280F31288BFF36F8F1C68240604D4E3
:1033140082F31188BFF36F8FEEE7596082F311884F
:10332400BFF36F8F10BD08B54368186803681A07A8
:1033340001D5FFF774FF03689B0649BF43684FF04C
:10334400FF3000200B7008BD03695B681B680B60CD
:1033540043681B68DB6803F4C063B3F5806F2FD048
:10336400A3F5C06CDCF1000343EB0C030B71436861
:103374001B681B6903F44053B3F5805F22D0B3F597
:10338400405F21D0002B0CBF012303234B71436802
:103394001B68DA68DB68D20403F4C06316D5002B1B
:1033A40014BF032304238B71436800201B685B69EB
:1033B40003F44073A3F5407253425341CB717047F9
:1033C4000223D3E70023E1E70223DFE7002B14BF46
:1033D40002230323E7E710B5436904463BB9002001
:1033E400E2684042537843F00103537010BD98479C
:1033F4000028F4D00028B8BF4042FF28A8BFFF200F
:10340400E3681870ECE740B1C368587810F0010025
:103414001EBF1878B0FA80F040097047EFF31183AB
:10342400102383F31288BFF36F8FFEE708B5FFF70D
:10343400F5FF102408B5EFF3118384F31288BFF36A
:103444006F8FFFF729FCF6E7D0E9003213605A606A
:103454000023C0E90033704708B5FFF7F5FF437B4D
:1034640023F0020343730023836008BD10B5EFF318
:103474001184102383F31288BFF36F8FFEF7DAFCF5
:1034840084F31188BFF36F8F10BD014610B5EFF3BD
:103494001184102383F31288BFF36F8F437B13F0DF
:1034A400280F0AD183680BB1FFF7D6FF4B7B084680
:1034B40023F004034B73FEF7BDFC84F31188BFF3C0
:1034C4006F8F10BD01211838FFF7DFBF38B50446F0
:1034D4000D46FEF71DFEB5F1FF3F08BFB4F1FF3FF7
:1034E4000346204611D0DA17D81D42F100030828FC
:1034F40073F100020AD36FF0080282424FF0030214
:103504009A4105D3C00840EA437038BD0020FCE767
:103514006FF00040F9E708B50246FEF785FF70B189
:10352400D0E904319B1A61EBE272B3F1004F72F1FE
:10353400000104DA002AACBF1846002008BD6FF071
:103544000040FBE7024638B5EFF31185102383F3FF
:103554001288BFF36F8F0368CBB1FEF765FF044693
:103564001046FEF773FF00224FF000438442C0E987
:10357400042306D1FEF760FFFFF7CDFF0021FEF71D
:10358400C3F9002085F31188BFF36F8F38BD6FF046
:103594001500F7E708B5FFF763F808BD0A44914240
:1035A40000F1FF3300D1704710B511F8014B91427F
:1035B40003F8014FF9D110BD03460244934200D1F0
:1035C400704703F8011BF9E7024610B501448A422B
:1035D400134603D01C780132002CF8D1181A10BD00
:1035E400F0B504461046C3F13707FFB203F01F03DA
:1035F400082BE6B233D0102B3ED06508A40844EA69
:10360400817445EAC1752D194FEA910242EB5102CA
:10361400290941EA02716D1842EB1212290A41EAA2
:1036240002616D1842EB1222290C41EA02416D1825
:1036340042EB1242AD1842F10002EC0844EA427433
:10364400D10804EB8402A6EB4205EDB2092D0CD996
:103654000134A5F10A0541F10001EDB212E0E408DC
:1036640044EA417406F00705C908303554EA0102FA
:1036740000F8015BBCD1F0BD240944EA017406F0F2
:103684000F050909092D84BFED19EDB2EDE700001E
:0C36940001480068704700000802002098
:0836A000B8CAFF7F0100000021
:1036A8000000000020370008E904000800000000BE
:1036B800000000004037000800000000E037000864
:1036C80000000000203800080000000060370008F3
:1036D800000000000038000800000000C0370008A3
:1036E800000000008037000800000000A037000834
:1036F800E12C00080000000000000000403800082D
:103708008D13000800000000851800080000000064
:083718005D0F00080000000035
:103720002C400008000000005C3A00085200002015
:1037300000000000FD110008000000000000000073
:103740008D400008983B00084C3A000860000020BB
:103750000000000000000000000000000000000069
:103760000E40000800000000000000005000002093
:103770000000000009110008000000000000000027
:1037800039400008B83A0008283A000854000020E0
:10379000A80200208D1400080000000000000000B6
:1037A00047400008CC3A0008283A0008560000209C
:1037B000BC0200208D140008000000000000000082
:1037C00055400008E03A0008283A00085800002058
:1037D000D00200208D14000800000000000000004E
:1037E00063400008F43A0008283A00085A00002014
:1037F000E40200208D14000800000000000000001A
:1038000071400008083B0008283A00085C000020CE
:10381000F80200208D1400080000000000000000E5
:103820007F4000081C3B0008283A00085E0000208A
:103830000C0300208D1400080000000000000000B0
:103840009E4000089C3B0008783A00086200002077
:10385000200000207D17000800000000000000008C
:10386000000000006B2C0008000000006B2C00081A
:10387000000000006B2C0008000000006B2C00080A
:10388000000000006B2C0008000000006B2C0008FA
:103890000C400008990F00080A400008990F000822
:1038A00008400008990F000806400008990F00081A
:1038B00004400008990F0008000000006B2C00086D
:1038C000000000006B2C0008000000006B2C0008BA
:1038D000000000006B2C0008000000006B2C0008AA
:1038E000000000006B2C0008000000006B2C00089A
:1038F000000000006B2C0008000000006B2C00088A
:10390000000000006B2C0008000000006B2C000879
:10391000000000006B2C000802400008990F00080E
:10392000000000006B2C0008000000006B2C000859
:10393000000000006B2C0008000000006B2C000849
:10394000000000006B2C0008000000006B2C000839
:10395000000000006B2C0008000000006B2C000829
:10396000000000006B2C0008000000006B2C000819
:10397000000000006B2C0008000000006B2C000809
:10398000000000006B2C0008000000006B2C0008F9
:10399000000000006B2C0008000000006B2C0008E9
:1039A00000400008990F0008000000006B2C000880
:1039B000000000006B2C0008000000006B2C0008C9
:1039C000000000006B2C0008000000006B2C0008B9
:1039D000000000006B2C0008000000006B2C0008A9
:1039E000000000006B2C0008000000006B2C000899
:1039F000000000006B2C0008000000006B2C000889
:103A0000000000006B2C0008000000006B2C000878
:103A1000000000006B2C0008000000006B2C000868
:083A2000000000006B2C0008FF
:103A280063300008CB2E0008D72E0008E92E0008C6
:103A3800F32E0008FD2E0008DD1300080B2F0008E8
:043A4800000000007A
:103A4C00B3310008D3310008EF3100080D32000803
:103A5C00B52D0008F92D0008000000008D1100089C
:0C3A6C00932E000800000000412E00080E
:103A78002B330008F53200083532000849160008D3
:043A88004D330008B2
:103A8C00000000200000000000000B0602000000F7
:103A9C00A03A000800000008F13F000824000206CC
:103AAC0000000020F93F000820000B11FFFF000070
:103ABC0000140240070000001C0000002000000061
:103ACC00FFFF000000100240040000001C0000007A
:103ADC0010000000FFFF0000000C0240030000007B
:103AEC001C00000008000000FFFF0000000802405E
:103AFC00020000001C00000004000000FFFF00009A
:103B0C0000040240010000001C0000000200000044
:103B1C00FFFF000000000240000000001C0000003D
:103B2C00010000002038000800380008E0370008C9
:103B3C00C0370008A037000800000000000000009B
:103B4C0080370008000000000000000000000000AA
:103B5C000000000000000000000000000000000059
:103B6C000000000000000000000000000000000049
:103B7C000000000000000000000000000000000039
:103B8C0000000000000000000000000000380240AF
:103B9C00004400404037000811030000C03B0008FF
:103BAC000100000000000000000000000000000008
:103BBC00C83B00082400000000000200D03B0008B5
:103BCC0001000000D83B0008020000004700000084
:103BDC00000200006700000000000000A83600088A
:103BEC00A8360008103700081837000820370008DE
:103BFC002037000800100000003068656C6C6F20E6
:103C0C00776F726C640D0A0072302F61313A20208C
:103C1C00307825303878202072312F61323A2020CC
:103C2C00307825303878202072322F61333A2020BA
:103C3C003078253038780A0072332F61343A2020DE
:103C4C00307825303878207231322F69703A202044
:103C5C00307825303878207231342F6C723A20202D
:103C6C003078253038780A0020787073723A20202A
:103C7C003078253038780A004661756C74696E6747
:103C8C0020696E737472756374696F6E20616464FD
:103C9C007265737320287231352F7063293A203086
:103CAC0078253038780A00556E68616E646C6564EE
:103CBC00204952516E3A2025640A002A2A2A2A2ABF
:103CCC00204D5055204641554C54202A2A2A2A2A48
:103CDC000A002020537461636B696E6720657272F1
:103CEC006F722028636F6E746578742061726561E1
:103CFC00206D69676874206265206E6F7420766130
:103D0C006C6964290A002020556E737461636B69B9
:103D1C006E67206572726F720A00202044617461B4
:103D2C00204163636573732056696F6C6174696FAE
:103D3C006E0A0020204D4D4641522041646472654C
:103D4C0073733A20307825780A002020496E7374FA
:103D5C0072756374696F6E2041636365737320566B
:103D6C00696F6C6174696F6E0A002A2A2A2A2A20EC
:103D7C005553414745204641554C54202A2A2A2A5E
:103D8C002A0A0020204469766973696F6E20627973
:103D9C00207A65726F0A002020556E616C69676E1F
:103DAC006564206D656D6F727920616363657373F3
:103DBC000A0020204E6F20636F70726F63657373FF
:103DCC006F7220696E737472756374696F6E730AA7
:103DDC00002020496C6C6567616C206C6F616420FD
:103DEC006F66204558435F52455455524E20696EBC
:103DFC00746F2050430A002020496C6C6567616C1D
:103E0C0020757365206F6620746865204550535289
:103E1C000A002020417474656D707420746F2065E5
:103E2C0078656375746520756E646566696E656426
:103E3C0020696E737472756374696F6E0A002A2A36
:103E4C002A2A2A20425553204641554C54202A2ACE
:103E5C002A2A2A0A002020537461636B696E67203A
:103E6C006572726F720A0020205072656369736507
:103E7C00206461746120627573206572726F720ABE
:103E8C000020204246415220416464726573733AAB
:103E9C0020307825780A002020496D70726563699E
:103EAC007365206461746120627573206572726F32
:103EBC00720A002020496E737472756374696F6E98
:103ECC0020627573206572726F720A005265736599
:103EDC007276656420457863657074696F6E20280E
:103EEC000053707572696F757320696E74657272A8
:103EFC0075707420284952512000535053454C2062
:103F0C00696E20746872656164206D6F64652064ED
:103F1C006F6573206E6F7420696E6469636174657C
:103F2C00205053500A002A2A2A2A2A204841524457
:103F3C00204641554C54202A2A2A2A2A0A0020209D
:103F4C00427573206661756C74206F6E20766563A4
:103F5C00746F72207461626C6520726561640A0012
:103F6C0020204465627567206576656E740A0020B2
:103F7C00204661756C7420657363616C6174696F44
:103F8C006E20287365652062656C6F77290A004185
:103F9C005243485F45584345505420776974682014
:103FAC00726561736F6E2025780A0A002A2A2A2A04
:103FBC002A204465627567206D6F6E69746F72207C
:103FCC00657863657074696F6E202A2A2A2A2A0A1A
:103FDC00002A2A2A2A2A20257320256429202A2A05
:103FEC002A2A2A0A00464C4153485F30005352415A
:103FFC004D5F30000A0605050401030102010101B1
:10400C000001696E746572727570742D636F6E74D5
:10401C00726F6C6C6572403430303130343030003B
:10402C00726363403430303233383030006770693B
:10403C006F403430303231343030006770696F404B
:10404C003430303231303030006770696F4034308A
:10405C00303230633030006770696F40343030324A
:10406C0030383030006770696F4034303032303463
:10407C003030006770696F4034303032303030305F
:10408C000072657365742D636F6E74726F6C6C6502
:10409C00720073657269616C403430303034343086
:1040AC0030000000000000000000010203040607BD
:1040BC000809030406080C101820306D61696E00A5
:1040CC002A2A2A20426F6F74696E67205A657068BD
:1040DC007972204F53206275696C642076342E32CD
:1040EC002E302D333838342D676261333538343601
:1040FC003761356364202A2A2A0A00286E756C6C95
:0C410C0029002A666C6F61742A00000014
:104118008025000000010300403800082D2C00080D
:1041280000000000D72C000800000000000000007C
:10413800000000002800002000C201000001030068
:1041480068FF1F00A0000000380000203800002091
:10415800FFFFFFFFFFFFFFFFFFFFFFFFFFFFFFFF67
:104168000000000000000000000000000000000047
:044178000000000043
:04417C0015E015E055
:0400000508000A5590
:00000001FF
